{
  "_format": "hh-sol-artifact-1",
  "contractName": "NftLinker",
  "sourceName": "contracts/NftLinker.sol",
  "abi": [
    {
      "inputs": [],
      "stateMutability": "nonpayable",
      "type": "constructor"
    },
    {
      "inputs": [],
      "name": "AlreadyInitialized",
      "type": "error"
    },
    {
      "inputs": [],
      "name": "NotApprovedByGateway",
      "type": "error"
    },
    {
      "anonymous": false,
      "inputs": [
        {
          "indexed": true,
          "internalType": "address",
          "name": "owner",
          "type": "address"
        },
        {
          "indexed": true,
          "internalType": "address",
          "name": "approved",
          "type": "address"
        },
        {
          "indexed": true,
          "internalType": "uint256",
          "name": "tokenId",
          "type": "uint256"
        }
      ],
      "name": "Approval",
      "type": "event"
    },
    {
      "anonymous": false,
      "inputs": [
        {
          "indexed": true,
          "internalType": "address",
          "name": "owner",
          "type": "address"
        },
        {
          "indexed": true,
          "internalType": "address",
          "name": "operator",
          "type": "address"
        },
        {
          "indexed": false,
          "internalType": "bool",
          "name": "approved",
          "type": "bool"
        }
      ],
      "name": "ApprovalForAll",
      "type": "event"
    },
    {
      "anonymous": false,
      "inputs": [
        {
          "indexed": true,
          "internalType": "address",
          "name": "from",
          "type": "address"
        },
        {
          "indexed": true,
          "internalType": "address",
          "name": "to",
          "type": "address"
        },
        {
          "indexed": true,
          "internalType": "uint256",
          "name": "tokenId",
          "type": "uint256"
        }
      ],
      "name": "Transfer",
      "type": "event"
    },
    {
      "inputs": [
        {
          "internalType": "address",
          "name": "to",
          "type": "address"
        },
        {
          "internalType": "uint256",
          "name": "tokenId",
          "type": "uint256"
        }
      ],
      "name": "approve",
      "outputs": [],
      "stateMutability": "nonpayable",
      "type": "function"
    },
    {
      "inputs": [
        {
          "internalType": "address",
          "name": "owner",
          "type": "address"
        }
      ],
      "name": "balanceOf",
      "outputs": [
        {
          "internalType": "uint256",
          "name": "",
          "type": "uint256"
        }
      ],
      "stateMutability": "view",
      "type": "function"
    },
    {
      "inputs": [],
      "name": "chainName",
      "outputs": [
        {
          "internalType": "string",
          "name": "",
          "type": "string"
        }
      ],
      "stateMutability": "view",
      "type": "function"
    },
    {
      "inputs": [
        {
          "internalType": "bytes32",
          "name": "commandId",
          "type": "bytes32"
        },
        {
          "internalType": "string",
          "name": "sourceChain",
          "type": "string"
        },
        {
          "internalType": "string",
          "name": "sourceAddress",
          "type": "string"
        },
        {
          "internalType": "bytes",
          "name": "payload",
          "type": "bytes"
        }
      ],
      "name": "execute",
      "outputs": [],
      "stateMutability": "nonpayable",
      "type": "function"
    },
    {
      "inputs": [
        {
          "internalType": "bytes32",
          "name": "commandId",
          "type": "bytes32"
        },
        {
          "internalType": "string",
          "name": "sourceChain",
          "type": "string"
        },
        {
          "internalType": "string",
          "name": "sourceAddress",
          "type": "string"
        },
        {
          "internalType": "bytes",
          "name": "payload",
          "type": "bytes"
        },
        {
          "internalType": "string",
          "name": "tokenSymbol",
          "type": "string"
        },
        {
          "internalType": "uint256",
          "name": "amount",
          "type": "uint256"
        }
      ],
      "name": "executeWithToken",
      "outputs": [],
      "stateMutability": "nonpayable",
      "type": "function"
    },
    {
      "inputs": [],
      "name": "gasReceiver",
      "outputs": [
        {
          "internalType": "contract IAxelarGasService",
          "name": "",
          "type": "address"
        }
      ],
      "stateMutability": "view",
      "type": "function"
    },
    {
      "inputs": [],
      "name": "gateway",
      "outputs": [
        {
          "internalType": "contract IAxelarGateway",
          "name": "",
          "type": "address"
        }
      ],
      "stateMutability": "view",
      "type": "function"
    },
    {
      "inputs": [
        {
          "internalType": "uint256",
          "name": "tokenId",
          "type": "uint256"
        }
      ],
      "name": "getApproved",
      "outputs": [
        {
          "internalType": "address",
          "name": "",
          "type": "address"
        }
      ],
      "stateMutability": "view",
      "type": "function"
    },
    {
      "inputs": [
        {
          "internalType": "string",
          "name": "chainName_",
          "type": "string"
        },
        {
          "internalType": "address",
          "name": "gateway_",
          "type": "address"
        },
        {
          "internalType": "address",
          "name": "gasReceiver_",
          "type": "address"
        }
      ],
      "name": "init",
      "outputs": [],
      "stateMutability": "nonpayable",
      "type": "function"
    },
    {
      "inputs": [
        {
          "internalType": "address",
          "name": "owner",
          "type": "address"
        },
        {
          "internalType": "address",
          "name": "operator",
          "type": "address"
        }
      ],
      "name": "isApprovedForAll",
      "outputs": [
        {
          "internalType": "bool",
          "name": "",
          "type": "bool"
        }
      ],
      "stateMutability": "view",
      "type": "function"
    },
    {
      "inputs": [],
      "name": "name",
      "outputs": [
        {
          "internalType": "string",
          "name": "",
          "type": "string"
        }
      ],
      "stateMutability": "view",
      "type": "function"
    },
    {
      "inputs": [
        {
          "internalType": "uint256",
          "name": "",
          "type": "uint256"
        }
      ],
      "name": "original",
      "outputs": [
        {
          "internalType": "bytes",
          "name": "",
          "type": "bytes"
        }
      ],
      "stateMutability": "view",
      "type": "function"
    },
    {
      "inputs": [
        {
          "internalType": "uint256",
          "name": "tokenId",
          "type": "uint256"
        }
      ],
      "name": "ownerOf",
      "outputs": [
        {
          "internalType": "address",
          "name": "",
          "type": "address"
        }
      ],
      "stateMutability": "view",
      "type": "function"
    },
    {
      "inputs": [
        {
          "internalType": "address",
          "name": "from",
          "type": "address"
        },
        {
          "internalType": "address",
          "name": "to",
          "type": "address"
        },
        {
          "internalType": "uint256",
          "name": "tokenId",
          "type": "uint256"
        }
      ],
      "name": "safeTransferFrom",
      "outputs": [],
      "stateMutability": "nonpayable",
      "type": "function"
    },
    {
      "inputs": [
        {
          "internalType": "address",
          "name": "from",
          "type": "address"
        },
        {
          "internalType": "address",
          "name": "to",
          "type": "address"
        },
        {
          "internalType": "uint256",
          "name": "tokenId",
          "type": "uint256"
        },
        {
          "internalType": "bytes",
          "name": "data",
          "type": "bytes"
        }
      ],
      "name": "safeTransferFrom",
      "outputs": [],
      "stateMutability": "nonpayable",
      "type": "function"
    },
    {
      "inputs": [
        {
          "internalType": "address",
          "name": "operator",
          "type": "address"
        },
        {
          "internalType": "uint256",
          "name": "tokenId",
          "type": "uint256"
        },
        {
          "internalType": "string",
          "name": "destinationChain",
          "type": "string"
        },
        {
          "internalType": "address",
          "name": "destinationAddress",
          "type": "address"
        }
      ],
      "name": "sendNFT",
      "outputs": [],
      "stateMutability": "payable",
      "type": "function"
    },
    {
      "inputs": [
        {
          "internalType": "address",
          "name": "operator",
          "type": "address"
        },
        {
          "internalType": "bool",
          "name": "approved",
          "type": "bool"
        }
      ],
      "name": "setApprovalForAll",
      "outputs": [],
      "stateMutability": "nonpayable",
      "type": "function"
    },
    {
      "inputs": [
        {
          "internalType": "bytes4",
          "name": "interfaceId",
          "type": "bytes4"
        }
      ],
      "name": "supportsInterface",
      "outputs": [
        {
          "internalType": "bool",
          "name": "",
          "type": "bool"
        }
      ],
      "stateMutability": "view",
      "type": "function"
    },
    {
      "inputs": [],
      "name": "symbol",
      "outputs": [
        {
          "internalType": "string",
          "name": "",
          "type": "string"
        }
      ],
      "stateMutability": "view",
      "type": "function"
    },
    {
      "inputs": [
        {
          "internalType": "uint256",
          "name": "tokenId",
          "type": "uint256"
        }
      ],
      "name": "tokenURI",
      "outputs": [
        {
          "internalType": "string",
          "name": "",
          "type": "string"
        }
      ],
      "stateMutability": "view",
      "type": "function"
    },
    {
      "inputs": [
        {
          "internalType": "address",
          "name": "from",
          "type": "address"
        },
        {
          "internalType": "address",
          "name": "to",
          "type": "address"
        },
        {
          "internalType": "uint256",
          "name": "tokenId",
          "type": "uint256"
        }
      ],
      "name": "transferFrom",
      "outputs": [],
      "stateMutability": "nonpayable",
      "type": "function"
    }
  ],
  "bytecode": "0x60806040523480156200001157600080fd5b506040518060400160405280601181526020017f4178656c6172204e4654204c696e6b65720000000000000000000000000000008152506040518060400160405280600381526020017f414e4c0000000000000000000000000000000000000000000000000000000000815250816000908051906020019062000096929190620000b8565b508060019080519060200190620000af929190620000b8565b505050620001cd565b828054620000c69062000197565b90600052602060002090601f016020900481019282620000ea576000855562000136565b82601f106200010557805160ff191683800117855562000136565b8280016001018555821562000136579182015b828111156200013557825182559160200191906001019062000118565b5b50905062000145919062000149565b5090565b5b80821115620001645760008160009055506001016200014a565b5090565b7f4e487b7100000000000000000000000000000000000000000000000000000000600052602260045260246000fd5b60006002820490506001821680620001b057607f821691505b60208210811415620001c757620001c662000168565b5b50919050565b61478780620001dd6000396000f3fe60806040526004361061012a5760003560e01c80636352211e116100ab578063933498761161006f578063933498761461040257806395d89b411461041e578063a22cb46514610449578063b88d4fde14610472578063c87b56dd1461049b578063e985e9c5146104d85761012a565b80636352211e146102f757806370a0823114610334578063717eb03f1461037157806371f72fa0146103ae57806380d14b4a146103d75761012a565b80631a98b2e0116100f25780631a98b2e0146102285780631c93b03a1461025157806323b872dd1461027c57806342842e0e146102a557806349160658146102ce5761012a565b806301ffc9a71461012f57806306fdde031461016c578063081812fc14610197578063095ea7b3146101d4578063116191b6146101fd575b600080fd5b34801561013b57600080fd5b5061015660048036038101906101519190612b0f565b610515565b6040516101639190612b57565b60405180910390f35b34801561017857600080fd5b506101816105f7565b60405161018e9190612c0b565b60405180910390f35b3480156101a357600080fd5b506101be60048036038101906101b99190612c63565b610689565b6040516101cb9190612cd1565b60405180910390f35b3480156101e057600080fd5b506101fb60048036038101906101f69190612d18565b6106cf565b005b34801561020957600080fd5b506102126107e7565b60405161021f9190612db7565b60405180910390f35b34801561023457600080fd5b5061024f600480360381019061024a9190612ec3565b610811565b005b34801561025d57600080fd5b50610266610923565b6040516102739190612c0b565b60405180910390f35b34801561028857600080fd5b506102a3600480360381019061029e9190612fd3565b6109b1565b005b3480156102b157600080fd5b506102cc60048036038101906102c79190612fd3565b610a11565b005b3480156102da57600080fd5b506102f560048036038101906102f09190613026565b610a31565b005b34801561030357600080fd5b5061031e60048036038101906103199190612c63565b610b7d565b60405161032b9190612cd1565b60405180910390f35b34801561034057600080fd5b5061035b600480360381019061035691906130ef565b610c2f565b604051610368919061312b565b60405180910390f35b34801561037d57600080fd5b5061039860048036038101906103939190612c63565b610ce7565b6040516103a5919061319b565b60405180910390f35b3480156103ba57600080fd5b506103d560048036038101906103d091906132ed565b610d87565b005b3480156103e357600080fd5b506103ec610eee565b6040516103f9919061337d565b60405180910390f35b61041c60048036038101906104179190613398565b610f14565b005b34801561042a57600080fd5b5061043361105e565b6040516104409190612c0b565b60405180910390f35b34801561045557600080fd5b50610470600480360381019061046b9190613447565b6110f0565b005b34801561047e57600080fd5b5061049960048036038101906104949190613528565b611106565b005b3480156104a757600080fd5b506104c260048036038101906104bd9190612c63565b611168565b6040516104cf9190612c0b565b60405180910390f35b3480156104e457600080fd5b506104ff60048036038101906104fa91906135ab565b6111d0565b60405161050c9190612b57565b60405180910390f35b60007f80ac58cd000000000000000000000000000000000000000000000000000000007bffffffffffffffffffffffffffffffffffffffffffffffffffffffff1916827bffffffffffffffffffffffffffffffffffffffffffffffffffffffff191614806105e057507f5b5e139f000000000000000000000000000000000000000000000000000000007bffffffffffffffffffffffffffffffffffffffffffffffffffffffff1916827bffffffffffffffffffffffffffffffffffffffffffffffffffffffff1916145b806105f057506105ef82611264565b5b9050919050565b6060600080546106069061361a565b80601f01602080910402602001604051908101604052809291908181526020018280546106329061361a565b801561067f5780601f106106545761010080835404028352916020019161067f565b820191906000526020600020905b81548152906001019060200180831161066257829003601f168201915b5050505050905090565b6000610694826112ce565b6004600083815260200190815260200160002060009054906101000a900473ffffffffffffffffffffffffffffffffffffffff169050919050565b60006106da82610b7d565b90508073ffffffffffffffffffffffffffffffffffffffff168373ffffffffffffffffffffffffffffffffffffffff16141561074b576040517f08c379a0000000000000000000000000000000000000000000000000000000008152600401610742906136be565b60405180910390fd5b8073ffffffffffffffffffffffffffffffffffffffff1661076a611319565b73ffffffffffffffffffffffffffffffffffffffff161480610799575061079881610793611319565b6111d0565b5b6107d8576040517f08c379a00000000000000000000000000000000000000000000000000000000081526004016107cf90613750565b60405180910390fd5b6107e28383611321565b505050565b6000600960009054906101000a900473ffffffffffffffffffffffffffffffffffffffff16905090565b600085856040516108239291906137a0565b604051809103902090506108356107e7565b73ffffffffffffffffffffffffffffffffffffffff16631876eed98c8c8c8c8c878b8b8b6040518a63ffffffff1660e01b815260040161087d999897969594939291906137f5565b602060405180830381600087803b15801561089757600080fd5b505af11580156108ab573d6000803e3d6000fd5b505050506040513d601f19601f820116820180604052508101906108cf9190613886565b610905576040517f500c44b400000000000000000000000000000000000000000000000000000000815260040160405180910390fd5b6109168a8a8a8a8a8a8a8a8a6113da565b5050505050505050505050565b600780546109309061361a565b80601f016020809104026020016040519081016040528092919081815260200182805461095c9061361a565b80156109a95780601f1061097e576101008083540402835291602001916109a9565b820191906000526020600020905b81548152906001019060200180831161098c57829003601f168201915b505050505081565b6109c26109bc611319565b826113e5565b610a01576040517f08c379a00000000000000000000000000000000000000000000000000000000081526004016109f890613925565b60405180910390fd5b610a0c83838361147a565b505050565b610a2c83838360405180602001604052806000815250611106565b505050565b602a8484905014610a77576040517f08c379a0000000000000000000000000000000000000000000000000000000008152600401610a6e90613991565b60405180910390fd5b60008282604051610a899291906137a0565b60405180910390209050610a9b6107e7565b73ffffffffffffffffffffffffffffffffffffffff16635f6970c38989898989876040518763ffffffff1660e01b8152600401610add969594939291906139b1565b602060405180830381600087803b158015610af757600080fd5b505af1158015610b0b573d6000803e3d6000fd5b505050506040513d601f19601f82011682018060405250810190610b2f9190613886565b610b65576040517f500c44b400000000000000000000000000000000000000000000000000000000815260040160405180910390fd5b610b738787878787876116e1565b5050505050505050565b6000806002600084815260200190815260200160002060009054906101000a900473ffffffffffffffffffffffffffffffffffffffff169050600073ffffffffffffffffffffffffffffffffffffffff168173ffffffffffffffffffffffffffffffffffffffff161415610c26576040517f08c379a0000000000000000000000000000000000000000000000000000000008152600401610c1d90613a54565b60405180910390fd5b80915050919050565b60008073ffffffffffffffffffffffffffffffffffffffff168273ffffffffffffffffffffffffffffffffffffffff161415610ca0576040517f08c379a0000000000000000000000000000000000000000000000000000000008152600401610c9790613ae6565b60405180910390fd5b600360008373ffffffffffffffffffffffffffffffffffffffff1673ffffffffffffffffffffffffffffffffffffffff168152602001908152602001600020549050919050565b60066020528060005260406000206000915090508054610d069061361a565b80601f0160208091040260200160405190810160405280929190818152602001828054610d329061361a565b8015610d7f5780601f10610d5457610100808354040283529160200191610d7f565b820191906000526020600020905b815481529060010190602001808311610d6257829003601f168201915b505050505081565b600073ffffffffffffffffffffffffffffffffffffffff16610da76107e7565b73ffffffffffffffffffffffffffffffffffffffff16141580610e195750600073ffffffffffffffffffffffffffffffffffffffff16600860009054906101000a900473ffffffffffffffffffffffffffffffffffffffff1673ffffffffffffffffffffffffffffffffffffffff1614155b15610e50576040517f0dc149f000000000000000000000000000000000000000000000000000000000815260040160405180910390fd5b80600860006101000a81548173ffffffffffffffffffffffffffffffffffffffff021916908373ffffffffffffffffffffffffffffffffffffffff16021790555081600960006101000a81548173ffffffffffffffffffffffffffffffffffffffff021916908373ffffffffffffffffffffffffffffffffffffffff1602179055508260079080519060200190610ee892919061297a565b50505050565b600860009054906101000a900473ffffffffffffffffffffffffffffffffffffffff1681565b3073ffffffffffffffffffffffffffffffffffffffff168473ffffffffffffffffffffffffffffffffffffffff161415610fd557610f50611319565b73ffffffffffffffffffffffffffffffffffffffff16610f6f84610b7d565b73ffffffffffffffffffffffffffffffffffffffff1614610fc5576040517f08c379a0000000000000000000000000000000000000000000000000000000008152600401610fbc90613b52565b60405180910390fd5b610fd08383836118c9565b611058565b8373ffffffffffffffffffffffffffffffffffffffff166323b872dd610ff9611319565b30866040518463ffffffff1660e01b815260040161101993929190613b72565b600060405180830381600087803b15801561103357600080fd5b505af1158015611047573d6000803e3d6000fd5b5050505061105784848484611aef565b5b50505050565b60606001805461106d9061361a565b80601f01602080910402602001604051908101604052809291908181526020018280546110999061361a565b80156110e65780601f106110bb576101008083540402835291602001916110e6565b820191906000526020600020905b8154815290600101906020018083116110c957829003601f168201915b5050505050905090565b6111026110fb611319565b8383611c51565b5050565b611117611111611319565b836113e5565b611156576040517f08c379a000000000000000000000000000000000000000000000000000000000815260040161114d90613925565b60405180910390fd5b61116284848484611dbe565b50505050565b6060611173826112ce565b600061117d611e1a565b9050600081511161119d57604051806020016040528060008152506111c8565b806111a784611e31565b6040516020016111b8929190613be5565b6040516020818303038152906040525b915050919050565b6000600560008473ffffffffffffffffffffffffffffffffffffffff1673ffffffffffffffffffffffffffffffffffffffff16815260200190815260200160002060008373ffffffffffffffffffffffffffffffffffffffff1673ffffffffffffffffffffffffffffffffffffffff16815260200190815260200160002060009054906101000a900460ff16905092915050565b60007f01ffc9a7000000000000000000000000000000000000000000000000000000007bffffffffffffffffffffffffffffffffffffffffffffffffffffffff1916827bffffffffffffffffffffffffffffffffffffffffffffffffffffffff1916149050919050565b6112d781611f92565b611316576040517f08c379a000000000000000000000000000000000000000000000000000000000815260040161130d90613a54565b60405180910390fd5b50565b600033905090565b816004600083815260200190815260200160002060006101000a81548173ffffffffffffffffffffffffffffffffffffffff021916908373ffffffffffffffffffffffffffffffffffffffff160217905550808273ffffffffffffffffffffffffffffffffffffffff1661139483610b7d565b73ffffffffffffffffffffffffffffffffffffffff167f8c5be1e5ebec7d5bd14f71427d1e84f3dd0314c0f7b2291e5b200ac8c7c3b92560405160405180910390a45050565b505050505050505050565b6000806113f183610b7d565b90508073ffffffffffffffffffffffffffffffffffffffff168473ffffffffffffffffffffffffffffffffffffffff161480611433575061143281856111d0565b5b8061147157508373ffffffffffffffffffffffffffffffffffffffff1661145984610689565b73ffffffffffffffffffffffffffffffffffffffff16145b91505092915050565b8273ffffffffffffffffffffffffffffffffffffffff1661149a82610b7d565b73ffffffffffffffffffffffffffffffffffffffff16146114f0576040517f08c379a00000000000000000000000000000000000000000000000000000000081526004016114e790613c7b565b60405180910390fd5b600073ffffffffffffffffffffffffffffffffffffffff168273ffffffffffffffffffffffffffffffffffffffff161415611560576040517f08c379a000000000000000000000000000000000000000000000000000000000815260040161155790613d0d565b60405180910390fd5b61156b838383611ffe565b611576600082611321565b6001600360008573ffffffffffffffffffffffffffffffffffffffff1673ffffffffffffffffffffffffffffffffffffffff16815260200190815260200160002060008282546115c69190613d5c565b925050819055506001600360008473ffffffffffffffffffffffffffffffffffffffff1673ffffffffffffffffffffffffffffffffffffffff168152602001908152602001600020600082825461161d9190613d90565b92505081905550816002600083815260200190815260200160002060006101000a81548173ffffffffffffffffffffffffffffffffffffffff021916908373ffffffffffffffffffffffffffffffffffffffff160217905550808273ffffffffffffffffffffffffffffffffffffffff168473ffffffffffffffffffffffffffffffffffffffff167fddf252ad1be2c89b69c2b068fc378daa952ba7f163c4a11628f55a4df523b3ef60405160405180910390a46116dc838383612003565b505050565b3073ffffffffffffffffffffffffffffffffffffffff1661174585858080601f016020809104026020016040519081016040528093929190818152602001838380828437600081840152601f19601f82011690508083019250505050505050612008565b73ffffffffffffffffffffffffffffffffffffffff161461179b576040517f08c379a000000000000000000000000000000000000000000000000000000000815260040161179290613e32565b60405180910390fd5b60008060008085858101906117b09190613e90565b935093509350935060076040516117c79190613fa7565b604051809103902084805190602001201415611851578273ffffffffffffffffffffffffffffffffffffffff166323b872dd3083856040518463ffffffff1660e01b815260040161181a93929190613b72565b600060405180830381600087803b15801561183457600080fd5b505af1158015611848573d6000803e3d6000fd5b505050506118bd565b600084848460405160200161186893929190613fbe565b60405160208183030381529060405290506000818051906020012060001c9050816006600083815260200190815260200160002090805190602001906118af929190612a00565b506118ba8382612133565b50505b50505050505050505050565b6118d283612151565b60008060006006600087815260200190815260200160002080546118f59061361a565b80601f01602080910402602001604051908101604052809291908181526020018280546119219061361a565b801561196e5780601f106119435761010080835404028352916020019161196e565b820191906000526020600020905b81548152906001019060200180831161195157829003601f168201915b50505050508060200190518101906119869190614096565b9250925092506000838383876040516020016119a59493929190614105565b604051602081830303815290604052905060006119d73073ffffffffffffffffffffffffffffffffffffffff1661226e565b9050600860009054906101000a900473ffffffffffffffffffffffffffffffffffffffff1673ffffffffffffffffffffffffffffffffffffffff16630c93e3bb34308a8587336040518763ffffffff1660e01b8152600401611a3d959493929190614151565b6000604051808303818588803b158015611a5657600080fd5b505af1158015611a6a573d6000803e3d6000fd5b5050505050611a776107e7565b73ffffffffffffffffffffffffffffffffffffffff16631c92115f8883856040518463ffffffff1660e01b8152600401611ab3939291906141b9565b600060405180830381600087803b158015611acd57600080fd5b505af1158015611ae1573d6000803e3d6000fd5b505050505050505050505050565b60006007858584604051602001611b09949392919061429a565b60405160208183030381529060405290506000611b3b3073ffffffffffffffffffffffffffffffffffffffff1661226e565b9050600860009054906101000a900473ffffffffffffffffffffffffffffffffffffffff1673ffffffffffffffffffffffffffffffffffffffff16630c93e3bb3430878587336040518763ffffffff1660e01b8152600401611ba1959493929190614151565b6000604051808303818588803b158015611bba57600080fd5b505af1158015611bce573d6000803e3d6000fd5b5050505050611bdb6107e7565b73ffffffffffffffffffffffffffffffffffffffff16631c92115f8583856040518463ffffffff1660e01b8152600401611c17939291906141b9565b600060405180830381600087803b158015611c3157600080fd5b505af1158015611c45573d6000803e3d6000fd5b50505050505050505050565b8173ffffffffffffffffffffffffffffffffffffffff168373ffffffffffffffffffffffffffffffffffffffff161415611cc0576040517f08c379a0000000000000000000000000000000000000000000000000000000008152600401611cb790614332565b60405180910390fd5b80600560008573ffffffffffffffffffffffffffffffffffffffff1673ffffffffffffffffffffffffffffffffffffffff16815260200190815260200160002060008473ffffffffffffffffffffffffffffffffffffffff1673ffffffffffffffffffffffffffffffffffffffff16815260200190815260200160002060006101000a81548160ff0219169083151502179055508173ffffffffffffffffffffffffffffffffffffffff168373ffffffffffffffffffffffffffffffffffffffff167f17307eab39ab6107e8899845ad3d59bd9653f200f220920489ca2b5937696c3183604051611db19190612b57565b60405180910390a3505050565b611dc984848461147a565b611dd58484848461258b565b611e14576040517f08c379a0000000000000000000000000000000000000000000000000000000008152600401611e0b906143c4565b60405180910390fd5b50505050565b606060405180602001604052806000815250905090565b60606000821415611e79576040518060400160405280600181526020017f30000000000000000000000000000000000000000000000000000000000000008152509050611f8d565b600082905060005b60008214611eab578080611e94906143e4565b915050600a82611ea4919061445c565b9150611e81565b60008167ffffffffffffffff811115611ec757611ec66131c2565b5b6040519080825280601f01601f191660200182016040528015611ef95781602001600182028036833780820191505090505b5090505b60008514611f8657600182611f129190613d5c565b9150600a85611f21919061448d565b6030611f2d9190613d90565b60f81b818381518110611f4357611f426144be565b5b60200101907effffffffffffffffffffffffffffffffffffffffffffffffffffffffffffff1916908160001a905350600a85611f7f919061445c565b9450611efd565b8093505050505b919050565b60008073ffffffffffffffffffffffffffffffffffffffff166002600084815260200190815260200160002060009054906101000a900473ffffffffffffffffffffffffffffffffffffffff1673ffffffffffffffffffffffffffffffffffffffff1614159050919050565b505050565b505050565b600080829050602a81511461202157600091505061212e565b60008080600290505b602a81101561212657838181518110612046576120456144be565b5b602001015160f81c60f81b60f81c915060618260ff161015801561206e575060668260ff1611155b156120875760578261208091906144fa565b91506120f8565b60418260ff161015801561209f575060468260ff1611155b156120b8576037826120b191906144fa565b91506120f7565b60308260ff16101580156120d0575060398260ff1611155b156120e9576030826120e291906144fa565b91506120f6565b600094505050505061212e565b5b5b60028160296121079190613d5c565b901b8260ff16901b83179250808061211e906143e4565b91505061202a565b508193505050505b919050565b61214d828260405180602001604052806000815250612722565b5050565b600061215c82610b7d565b905061216a81600084611ffe565b612175600083611321565b6001600360008373ffffffffffffffffffffffffffffffffffffffff1673ffffffffffffffffffffffffffffffffffffffff16815260200190815260200160002060008282546121c59190613d5c565b925050819055506002600083815260200190815260200160002060006101000a81549073ffffffffffffffffffffffffffffffffffffffff021916905581600073ffffffffffffffffffffffffffffffffffffffff168273ffffffffffffffffffffffffffffffffffffffff167fddf252ad1be2c89b69c2b068fc378daa952ba7f163c4a11628f55a4df523b3ef60405160405180910390a461226a81600084612003565b5050565b60606000826040516020016122839190614576565b604051602081830303815290604052905060006040518060400160405280601081526020017f303132333435363738396162636465660000000000000000000000000000000081525090506000600283516122de9190614591565b60026122ea9190613d90565b67ffffffffffffffff811115612303576123026131c2565b5b6040519080825280601f01601f1916602001820160405280156123355781602001600182028036833780820191505090505b5090507f30000000000000000000000000000000000000000000000000000000000000008160008151811061236d5761236c6144be565b5b60200101907effffffffffffffffffffffffffffffffffffffffffffffffffffffffffffff1916908160001a9053507f7800000000000000000000000000000000000000000000000000000000000000816001815181106123d1576123d06144be565b5b60200101907effffffffffffffffffffffffffffffffffffffffffffffffffffffffffffff1916908160001a90535060005b835181101561257f57826004858381518110612422576124216144be565b5b602001015160f81c60f81b7effffffffffffffffffffffffffffffffffffffffffffffffffffffffffffff1916901c60f81c60ff1681518110612468576124676144be565b5b602001015160f81c60f81b826002836124819190614591565b600261248d9190613d90565b8151811061249e5761249d6144be565b5b60200101907effffffffffffffffffffffffffffffffffffffffffffffffffffffffffffff1916908160001a90535082600f60f81b8583815181106124e6576124e56144be565b5b602001015160f81c60f81b1660f81c60ff1681518110612509576125086144be565b5b602001015160f81c60f81b826002836125229190614591565b600361252e9190613d90565b8151811061253f5761253e6144be565b5b60200101907effffffffffffffffffffffffffffffffffffffffffffffffffffffffffffff1916908160001a90535080612578906143e4565b9050612403565b50809350505050919050565b60006125ac8473ffffffffffffffffffffffffffffffffffffffff1661277d565b15612715578373ffffffffffffffffffffffffffffffffffffffff1663150b7a026125d5611319565b8786866040518563ffffffff1660e01b81526004016125f794939291906145eb565b602060405180830381600087803b15801561261157600080fd5b505af192505050801561264257506040513d601f19601f8201168201806040525081019061263f919061464c565b60015b6126c5573d8060008114612672576040519150601f19603f3d011682016040523d82523d6000602084013e612677565b606091505b506000815114156126bd576040517f08c379a00000000000000000000000000000000000000000000000000000000081526004016126b4906143c4565b60405180910390fd5b805181602001fd5b63150b7a0260e01b7bffffffffffffffffffffffffffffffffffffffffffffffffffffffff1916817bffffffffffffffffffffffffffffffffffffffffffffffffffffffff19161491505061271a565b600190505b949350505050565b61272c83836127a0565b612739600084848461258b565b612778576040517f08c379a000000000000000000000000000000000000000000000000000000000815260040161276f906143c4565b60405180910390fd5b505050565b6000808273ffffffffffffffffffffffffffffffffffffffff163b119050919050565b600073ffffffffffffffffffffffffffffffffffffffff168273ffffffffffffffffffffffffffffffffffffffff161415612810576040517f08c379a0000000000000000000000000000000000000000000000000000000008152600401612807906146c5565b60405180910390fd5b61281981611f92565b15612859576040517f08c379a000000000000000000000000000000000000000000000000000000000815260040161285090614731565b60405180910390fd5b61286560008383611ffe565b6001600360008473ffffffffffffffffffffffffffffffffffffffff1673ffffffffffffffffffffffffffffffffffffffff16815260200190815260200160002060008282546128b59190613d90565b92505081905550816002600083815260200190815260200160002060006101000a81548173ffffffffffffffffffffffffffffffffffffffff021916908373ffffffffffffffffffffffffffffffffffffffff160217905550808273ffffffffffffffffffffffffffffffffffffffff16600073ffffffffffffffffffffffffffffffffffffffff167fddf252ad1be2c89b69c2b068fc378daa952ba7f163c4a11628f55a4df523b3ef60405160405180910390a461297660008383612003565b5050565b8280546129869061361a565b90600052602060002090601f0160209004810192826129a857600085556129ef565b82601f106129c157805160ff19168380011785556129ef565b828001600101855582156129ef579182015b828111156129ee5782518255916020019190600101906129d3565b5b5090506129fc9190612a86565b5090565b828054612a0c9061361a565b90600052602060002090601f016020900481019282612a2e5760008555612a75565b82601f10612a4757805160ff1916838001178555612a75565b82800160010185558215612a75579182015b82811115612a74578251825591602001919060010190612a59565b5b509050612a829190612a86565b5090565b5b80821115612a9f576000816000905550600101612a87565b5090565b6000604051905090565b600080fd5b600080fd5b60007fffffffff0000000000000000000000000000000000000000000000000000000082169050919050565b612aec81612ab7565b8114612af757600080fd5b50565b600081359050612b0981612ae3565b92915050565b600060208284031215612b2557612b24612aad565b5b6000612b3384828501612afa565b91505092915050565b60008115159050919050565b612b5181612b3c565b82525050565b6000602082019050612b6c6000830184612b48565b92915050565b600081519050919050565b600082825260208201905092915050565b60005b83811015612bac578082015181840152602081019050612b91565b83811115612bbb576000848401525b50505050565b6000601f19601f8301169050919050565b6000612bdd82612b72565b612be78185612b7d565b9350612bf7818560208601612b8e565b612c0081612bc1565b840191505092915050565b60006020820190508181036000830152612c258184612bd2565b905092915050565b6000819050919050565b612c4081612c2d565b8114612c4b57600080fd5b50565b600081359050612c5d81612c37565b92915050565b600060208284031215612c7957612c78612aad565b5b6000612c8784828501612c4e565b91505092915050565b600073ffffffffffffffffffffffffffffffffffffffff82169050919050565b6000612cbb82612c90565b9050919050565b612ccb81612cb0565b82525050565b6000602082019050612ce66000830184612cc2565b92915050565b612cf581612cb0565b8114612d0057600080fd5b50565b600081359050612d1281612cec565b92915050565b60008060408385031215612d2f57612d2e612aad565b5b6000612d3d85828601612d03565b9250506020612d4e85828601612c4e565b9150509250929050565b6000819050919050565b6000612d7d612d78612d7384612c90565b612d58565b612c90565b9050919050565b6000612d8f82612d62565b9050919050565b6000612da182612d84565b9050919050565b612db181612d96565b82525050565b6000602082019050612dcc6000830184612da8565b92915050565b6000819050919050565b612de581612dd2565b8114612df057600080fd5b50565b600081359050612e0281612ddc565b92915050565b600080fd5b600080fd5b600080fd5b60008083601f840112612e2d57612e2c612e08565b5b8235905067ffffffffffffffff811115612e4a57612e49612e0d565b5b602083019150836001820283011115612e6657612e65612e12565b5b9250929050565b60008083601f840112612e8357612e82612e08565b5b8235905067ffffffffffffffff811115612ea057612e9f612e0d565b5b602083019150836001820283011115612ebc57612ebb612e12565b5b9250929050565b60008060008060008060008060008060c08b8d031215612ee657612ee5612aad565b5b6000612ef48d828e01612df3565b9a505060208b013567ffffffffffffffff811115612f1557612f14612ab2565b5b612f218d828e01612e17565b995099505060408b013567ffffffffffffffff811115612f4457612f43612ab2565b5b612f508d828e01612e17565b975097505060608b013567ffffffffffffffff811115612f7357612f72612ab2565b5b612f7f8d828e01612e6d565b955095505060808b013567ffffffffffffffff811115612fa257612fa1612ab2565b5b612fae8d828e01612e17565b935093505060a0612fc18d828e01612c4e565b9150509295989b9194979a5092959850565b600080600060608486031215612fec57612feb612aad565b5b6000612ffa86828701612d03565b935050602061300b86828701612d03565b925050604061301c86828701612c4e565b9150509250925092565b60008060008060008060006080888a03121561304557613044612aad565b5b60006130538a828b01612df3565b975050602088013567ffffffffffffffff81111561307457613073612ab2565b5b6130808a828b01612e17565b9650965050604088013567ffffffffffffffff8111156130a3576130a2612ab2565b5b6130af8a828b01612e17565b9450945050606088013567ffffffffffffffff8111156130d2576130d1612ab2565b5b6130de8a828b01612e6d565b925092505092959891949750929550565b60006020828403121561310557613104612aad565b5b600061311384828501612d03565b91505092915050565b61312581612c2d565b82525050565b6000602082019050613140600083018461311c565b92915050565b600081519050919050565b600082825260208201905092915050565b600061316d82613146565b6131778185613151565b9350613187818560208601612b8e565b61319081612bc1565b840191505092915050565b600060208201905081810360008301526131b58184613162565b905092915050565b600080fd5b7f4e487b7100000000000000000000000000000000000000000000000000000000600052604160045260246000fd5b6131fa82612bc1565b810181811067ffffffffffffffff82111715613219576132186131c2565b5b80604052505050565b600061322c612aa3565b905061323882826131f1565b919050565b600067ffffffffffffffff821115613258576132576131c2565b5b61326182612bc1565b9050602081019050919050565b82818337600083830152505050565b600061329061328b8461323d565b613222565b9050828152602081018484840111156132ac576132ab6131bd565b5b6132b784828561326e565b509392505050565b600082601f8301126132d4576132d3612e08565b5b81356132e484826020860161327d565b91505092915050565b60008060006060848603121561330657613305612aad565b5b600084013567ffffffffffffffff81111561332457613323612ab2565b5b613330868287016132bf565b935050602061334186828701612d03565b925050604061335286828701612d03565b9150509250925092565b600061336782612d84565b9050919050565b6133778161335c565b82525050565b6000602082019050613392600083018461336e565b92915050565b600080600080608085870312156133b2576133b1612aad565b5b60006133c087828801612d03565b94505060206133d187828801612c4e565b935050604085013567ffffffffffffffff8111156133f2576133f1612ab2565b5b6133fe878288016132bf565b925050606061340f87828801612d03565b91505092959194509250565b61342481612b3c565b811461342f57600080fd5b50565b6000813590506134418161341b565b92915050565b6000806040838503121561345e5761345d612aad565b5b600061346c85828601612d03565b925050602061347d85828601613432565b9150509250929050565b600067ffffffffffffffff8211156134a2576134a16131c2565b5b6134ab82612bc1565b9050602081019050919050565b60006134cb6134c684613487565b613222565b9050828152602081018484840111156134e7576134e66131bd565b5b6134f284828561326e565b509392505050565b600082601f83011261350f5761350e612e08565b5b813561351f8482602086016134b8565b91505092915050565b6000806000806080858703121561354257613541612aad565b5b600061355087828801612d03565b945050602061356187828801612d03565b935050604061357287828801612c4e565b925050606085013567ffffffffffffffff81111561359357613592612ab2565b5b61359f878288016134fa565b91505092959194509250565b600080604083850312156135c2576135c1612aad565b5b60006135d085828601612d03565b92505060206135e185828601612d03565b9150509250929050565b7f4e487b7100000000000000000000000000000000000000000000000000000000600052602260045260246000fd5b6000600282049050600182168061363257607f821691505b60208210811415613646576136456135eb565b5b50919050565b7f4552433732313a20617070726f76616c20746f2063757272656e74206f776e6560008201527f7200000000000000000000000000000000000000000000000000000000000000602082015250565b60006136a8602183612b7d565b91506136b38261364c565b604082019050919050565b600060208201905081810360008301526136d78161369b565b9050919050565b7f4552433732313a20617070726f76652063616c6c6572206973206e6f7420746f60008201527f6b656e206f776e6572206e6f7220617070726f76656420666f7220616c6c0000602082015250565b600061373a603e83612b7d565b9150613745826136de565b604082019050919050565b600060208201905081810360008301526137698161372d565b9050919050565b600081905092915050565b60006137878385613770565b935061379483858461326e565b82840190509392505050565b60006137ad82848661377b565b91508190509392505050565b6137c281612dd2565b82525050565b60006137d48385612b7d565b93506137e183858461326e565b6137ea83612bc1565b840190509392505050565b600060c08201905061380a600083018c6137b9565b818103602083015261381d818a8c6137c8565b9050818103604083015261383281888a6137c8565b905061384160608301876137b9565b81810360808301526138548185876137c8565b905061386360a083018461311c565b9a9950505050505050505050565b6000815190506138808161341b565b92915050565b60006020828403121561389c5761389b612aad565b5b60006138aa84828501613871565b91505092915050565b7f4552433732313a2063616c6c6572206973206e6f7420746f6b656e206f776e6560008201527f72206e6f7220617070726f766564000000000000000000000000000000000000602082015250565b600061390f602e83612b7d565b915061391a826138b3565b604082019050919050565b6000602082019050818103600083015261393e81613902565b9050919050565b7f7374617274000000000000000000000000000000000000000000000000000000600082015250565b600061397b600583612b7d565b915061398682613945565b602082019050919050565b600060208201905081810360008301526139aa8161396e565b9050919050565b60006080820190506139c660008301896137b9565b81810360208301526139d98187896137c8565b905081810360408301526139ee8185876137c8565b90506139fd60608301846137b9565b979650505050505050565b7f4552433732313a20696e76616c696420746f6b656e2049440000000000000000600082015250565b6000613a3e601883612b7d565b9150613a4982613a08565b602082019050919050565b60006020820190508181036000830152613a6d81613a31565b9050919050565b7f4552433732313a2061646472657373207a65726f206973206e6f74206120766160008201527f6c6964206f776e65720000000000000000000000000000000000000000000000602082015250565b6000613ad0602983612b7d565b9150613adb82613a74565b604082019050919050565b60006020820190508181036000830152613aff81613ac3565b9050919050565b7f4e4f545f594f55525f544f4b454e000000000000000000000000000000000000600082015250565b6000613b3c600e83612b7d565b9150613b4782613b06565b602082019050919050565b60006020820190508181036000830152613b6b81613b2f565b9050919050565b6000606082019050613b876000830186612cc2565b613b946020830185612cc2565b613ba1604083018461311c565b949350505050565b600081905092915050565b6000613bbf82612b72565b613bc98185613ba9565b9350613bd9818560208601612b8e565b80840191505092915050565b6000613bf18285613bb4565b9150613bfd8284613bb4565b91508190509392505050565b7f4552433732313a207472616e736665722066726f6d20696e636f72726563742060008201527f6f776e6572000000000000000000000000000000000000000000000000000000602082015250565b6000613c65602583612b7d565b9150613c7082613c09565b604082019050919050565b60006020820190508181036000830152613c9481613c58565b9050919050565b7f4552433732313a207472616e7366657220746f20746865207a65726f2061646460008201527f7265737300000000000000000000000000000000000000000000000000000000602082015250565b6000613cf7602483612b7d565b9150613d0282613c9b565b604082019050919050565b60006020820190508181036000830152613d2681613cea565b9050919050565b7f4e487b7100000000000000000000000000000000000000000000000000000000600052601160045260246000fd5b6000613d6782612c2d565b9150613d7283612c2d565b925082821015613d8557613d84613d2d565b5b828203905092915050565b6000613d9b82612c2d565b9150613da683612c2d565b9250827fffffffffffffffffffffffffffffffffffffffffffffffffffffffffffffffff03821115613ddb57613dda613d2d565b5b828201905092915050565b7f4e4f545f415f4c494e4b45520000000000000000000000000000000000000000600082015250565b6000613e1c600c83612b7d565b9150613e2782613de6565b602082019050919050565b60006020820190508181036000830152613e4b81613e0f565b9050919050565b6000613e5d82612c90565b9050919050565b613e6d81613e52565b8114613e7857600080fd5b50565b600081359050613e8a81613e64565b92915050565b60008060008060808587031215613eaa57613ea9612aad565b5b600085013567ffffffffffffffff811115613ec857613ec7612ab2565b5b613ed4878288016132bf565b9450506020613ee587828801613e7b565b9350506040613ef687828801612c4e565b9250506060613f0787828801613e7b565b91505092959194509250565b60008190508160005260206000209050919050565b60008154613f358161361a565b613f3f8186613770565b94506001821660008114613f5a5760018114613f6b57613f9e565b60ff19831686528186019350613f9e565b613f7485613f13565b60005b83811015613f9657815481890152600182019150602081019050613f77565b838801955050505b50505092915050565b6000613fb38284613f28565b915081905092915050565b60006060820190508181036000830152613fd88186612bd2565b9050613fe76020830185612cc2565b613ff4604083018461311c565b949350505050565b600061400f61400a8461323d565b613222565b90508281526020810184848401111561402b5761402a6131bd565b5b614036848285612b8e565b509392505050565b600082601f83011261405357614052612e08565b5b8151614063848260208601613ffc565b91505092915050565b60008151905061407b81613e64565b92915050565b60008151905061409081612c37565b92915050565b6000806000606084860312156140af576140ae612aad565b5b600084015167ffffffffffffffff8111156140cd576140cc612ab2565b5b6140d98682870161403e565b93505060206140ea8682870161406c565b92505060406140fb86828701614081565b9150509250925092565b6000608082019050818103600083015261411f8187612bd2565b905061412e6020830186612cc2565b61413b604083018561311c565b6141486060830184612cc2565b95945050505050565b600060a0820190506141666000830188612cc2565b81810360208301526141788187612bd2565b9050818103604083015261418c8186612bd2565b905081810360608301526141a08185613162565b90506141af6080830184612cc2565b9695505050505050565b600060608201905081810360008301526141d38186612bd2565b905081810360208301526141e78185612bd2565b905081810360408301526141fb8184613162565b9050949350505050565b60008190508160005260206000209050919050565b600081546142278161361a565b6142318186612b7d565b9450600182166000811461424c576001811461425e57614291565b60ff1983168652602086019350614291565b61426785614205565b60005b838110156142895781548189015260018201915060208101905061426a565b808801955050505b50505092915050565b600060808201905081810360008301526142b4818761421a565b90506142c36020830186612cc2565b6142d0604083018561311c565b6142dd6060830184612cc2565b95945050505050565b7f4552433732313a20617070726f766520746f2063616c6c657200000000000000600082015250565b600061431c601983612b7d565b9150614327826142e6565b602082019050919050565b6000602082019050818103600083015261434b8161430f565b9050919050565b7f4552433732313a207472616e7366657220746f206e6f6e20455243373231526560008201527f63656976657220696d706c656d656e7465720000000000000000000000000000602082015250565b60006143ae603283612b7d565b91506143b982614352565b604082019050919050565b600060208201905081810360008301526143dd816143a1565b9050919050565b60006143ef82612c2d565b91507fffffffffffffffffffffffffffffffffffffffffffffffffffffffffffffffff82141561442257614421613d2d565b5b600182019050919050565b7f4e487b7100000000000000000000000000000000000000000000000000000000600052601260045260246000fd5b600061446782612c2d565b915061447283612c2d565b9250826144825761448161442d565b5b828204905092915050565b600061449882612c2d565b91506144a383612c2d565b9250826144b3576144b261442d565b5b828206905092915050565b7f4e487b7100000000000000000000000000000000000000000000000000000000600052603260045260246000fd5b600060ff82169050919050565b6000614505826144ed565b9150614510836144ed565b92508282101561452357614522613d2d565b5b828203905092915050565b60008160601b9050919050565b60006145468261452e565b9050919050565b60006145588261453b565b9050919050565b61457061456b82612cb0565b61454d565b82525050565b6000614582828461455f565b60148201915081905092915050565b600061459c82612c2d565b91506145a783612c2d565b9250817fffffffffffffffffffffffffffffffffffffffffffffffffffffffffffffffff04831182151516156145e0576145df613d2d565b5b828202905092915050565b60006080820190506146006000830187612cc2565b61460d6020830186612cc2565b61461a604083018561311c565b818103606083015261462c8184613162565b905095945050505050565b60008151905061464681612ae3565b92915050565b60006020828403121561466257614661612aad565b5b600061467084828501614637565b91505092915050565b7f4552433732313a206d696e7420746f20746865207a65726f2061646472657373600082015250565b60006146af602083612b7d565b91506146ba82614679565b602082019050919050565b600060208201905081810360008301526146de816146a2565b9050919050565b7f4552433732313a20746f6b656e20616c7265616479206d696e74656400000000600082015250565b600061471b601c83612b7d565b9150614726826146e5565b602082019050919050565b6000602082019050818103600083015261474a8161470e565b905091905056fea26469706673582212206453cf998a12583138bf1e8a54f781b9a201a8bea2ba9531e1d2b32b4baf370b64736f6c63430008090033",
  "linkReferences": {},
  "deployedLinkReferences": {}
}