{
  "_format": "hh-sol-artifact-1",
  "contractName": "AxelarMarketExecutor",
  "sourceName": "contracts/AxelarMarketExecutor.sol",
  "abi": [
    {
      "inputs": [],
      "name": "AlreadyInitialized",
      "type": "error"
    },
    {
      "inputs": [],
      "name": "NotApprovedByGateway",
      "type": "error"
    },
    {
      "anonymous": false,
      "inputs": [
        {
          "indexed": false,
          "internalType": "address",
          "name": "lender",
          "type": "address"
        },
        {
          "indexed": false,
          "internalType": "address",
          "name": "nftAddress",
          "type": "address"
        },
        {
          "indexed": false,
          "internalType": "uint256",
          "name": "tokenId",
          "type": "uint256"
        }
      ],
      "name": "CancelNFTListing",
      "type": "event"
    },
    {
      "anonymous": false,
      "inputs": [
        {
          "indexed": false,
          "internalType": "address",
          "name": "lender",
          "type": "address"
        },
        {
          "indexed": false,
          "internalType": "address",
          "name": "nftAddress",
          "type": "address"
        },
        {
          "indexed": false,
          "internalType": "uint256",
          "name": "tokenId",
          "type": "uint256"
        },
        {
          "indexed": false,
          "internalType": "uint256",
          "name": "maximumEndTime",
          "type": "uint256"
        },
        {
          "indexed": false,
          "internalType": "uint256",
          "name": "pricePerDay",
          "type": "uint256"
        },
        {
          "indexed": false,
          "internalType": "uint256",
          "name": "collateralAmount",
          "type": "uint256"
        }
      ],
      "name": "NFTListed",
      "type": "event"
    },
    {
      "anonymous": false,
      "inputs": [
        {
          "indexed": false,
          "internalType": "address",
          "name": "nftAddress",
          "type": "address"
        },
        {
          "indexed": false,
          "internalType": "uint256",
          "name": "tokenId",
          "type": "uint256"
        },
        {
          "components": [
            {
              "internalType": "address",
              "name": "renter",
              "type": "address"
            },
            {
              "internalType": "uint256",
              "name": "expiryTime",
              "type": "uint256"
            }
          ],
          "indexed": false,
          "internalType": "struct Rental",
          "name": "rental",
          "type": "tuple"
        }
      ],
      "name": "NFTRented",
      "type": "event"
    },
    {
      "anonymous": false,
      "inputs": [
        {
          "indexed": true,
          "internalType": "address",
          "name": "previousOwner",
          "type": "address"
        },
        {
          "indexed": true,
          "internalType": "address",
          "name": "newOwner",
          "type": "address"
        }
      ],
      "name": "OwnershipTransferred",
      "type": "event"
    },
    {
      "inputs": [
        {
          "internalType": "address",
          "name": "nftAddress",
          "type": "address"
        },
        {
          "internalType": "uint256",
          "name": "tokenId",
          "type": "uint256"
        }
      ],
      "name": "cancelNFTListing",
      "outputs": [],
      "stateMutability": "nonpayable",
      "type": "function"
    },
    {
      "inputs": [],
      "name": "chainName",
      "outputs": [
        {
          "internalType": "string",
          "name": "",
          "type": "string"
        }
      ],
      "stateMutability": "view",
      "type": "function"
    },
    {
      "inputs": [
        {
          "internalType": "bytes32",
          "name": "commandId",
          "type": "bytes32"
        },
        {
          "internalType": "string",
          "name": "sourceChain",
          "type": "string"
        },
        {
          "internalType": "string",
          "name": "sourceAddress",
          "type": "string"
        },
        {
          "internalType": "bytes",
          "name": "payload",
          "type": "bytes"
        }
      ],
      "name": "execute",
      "outputs": [],
      "stateMutability": "nonpayable",
      "type": "function"
    },
    {
      "inputs": [
        {
          "internalType": "bytes32",
          "name": "commandId",
          "type": "bytes32"
        },
        {
          "internalType": "string",
          "name": "sourceChain",
          "type": "string"
        },
        {
          "internalType": "string",
          "name": "sourceAddress",
          "type": "string"
        },
        {
          "internalType": "bytes",
          "name": "payload",
          "type": "bytes"
        },
        {
          "internalType": "string",
          "name": "tokenSymbol",
          "type": "string"
        },
        {
          "internalType": "uint256",
          "name": "amount",
          "type": "uint256"
        }
      ],
      "name": "executeWithToken",
      "outputs": [],
      "stateMutability": "nonpayable",
      "type": "function"
    },
    {
      "inputs": [],
      "name": "gasReceiver",
      "outputs": [
        {
          "internalType": "contract IAxelarGasService",
          "name": "",
          "type": "address"
        }
      ],
      "stateMutability": "view",
      "type": "function"
    },
    {
      "inputs": [],
      "name": "gateway",
      "outputs": [
        {
          "internalType": "contract IAxelarGateway",
          "name": "",
          "type": "address"
        }
      ],
      "stateMutability": "view",
      "type": "function"
    },
    {
      "inputs": [],
      "name": "getAllListings",
      "outputs": [
        {
          "components": [
            {
              "internalType": "address",
              "name": "nftAddress",
              "type": "address"
            },
            {
              "internalType": "uint256",
              "name": "tokenId",
              "type": "uint256"
            },
            {
              "internalType": "address",
              "name": "lender",
              "type": "address"
            },
            {
              "internalType": "uint256",
              "name": "maximumEndTime",
              "type": "uint256"
            },
            {
              "internalType": "uint256",
              "name": "createTime",
              "type": "uint256"
            },
            {
              "internalType": "address",
              "name": "preferredToken",
              "type": "address"
            },
            {
              "components": [
                {
                  "internalType": "address",
                  "name": "renter",
                  "type": "address"
                },
                {
                  "internalType": "uint256",
                  "name": "expiryTime",
                  "type": "uint256"
                }
              ],
              "internalType": "struct Rental",
              "name": "rental",
              "type": "tuple"
            },
            {
              "internalType": "uint256",
              "name": "pricePerDay",
              "type": "uint256"
            },
            {
              "internalType": "uint256",
              "name": "collateralAmount",
              "type": "uint256"
            }
          ],
          "internalType": "struct NFTListing[]",
          "name": "",
          "type": "tuple[]"
        }
      ],
      "stateMutability": "view",
      "type": "function"
    },
    {
      "inputs": [
        {
          "internalType": "address",
          "name": "nftAddress",
          "type": "address"
        },
        {
          "internalType": "uint256",
          "name": "tokenId",
          "type": "uint256"
        }
      ],
      "name": "getListing",
      "outputs": [
        {
          "components": [
            {
              "internalType": "address",
              "name": "nftAddress",
              "type": "address"
            },
            {
              "internalType": "uint256",
              "name": "tokenId",
              "type": "uint256"
            },
            {
              "internalType": "address",
              "name": "lender",
              "type": "address"
            },
            {
              "internalType": "uint256",
              "name": "maximumEndTime",
              "type": "uint256"
            },
            {
              "internalType": "uint256",
              "name": "createTime",
              "type": "uint256"
            },
            {
              "internalType": "address",
              "name": "preferredToken",
              "type": "address"
            },
            {
              "components": [
                {
                  "internalType": "address",
                  "name": "renter",
                  "type": "address"
                },
                {
                  "internalType": "uint256",
                  "name": "expiryTime",
                  "type": "uint256"
                }
              ],
              "internalType": "struct Rental",
              "name": "rental",
              "type": "tuple"
            },
            {
              "internalType": "uint256",
              "name": "pricePerDay",
              "type": "uint256"
            },
            {
              "internalType": "uint256",
              "name": "collateralAmount",
              "type": "uint256"
            }
          ],
          "internalType": "struct NFTListing",
          "name": "",
          "type": "tuple"
        }
      ],
      "stateMutability": "view",
      "type": "function"
    },
    {
      "inputs": [
        {
          "internalType": "string",
          "name": "chainName_",
          "type": "string"
        },
        {
          "internalType": "address",
          "name": "gateway_",
          "type": "address"
        },
        {
          "internalType": "address",
          "name": "gasReceiver_",
          "type": "address"
        }
      ],
      "name": "init",
      "outputs": [],
      "stateMutability": "nonpayable",
      "type": "function"
    },
    {
      "inputs": [
        {
          "internalType": "address",
          "name": "nftAddress",
          "type": "address"
        },
        {
          "internalType": "uint256",
          "name": "tokenId",
          "type": "uint256"
        },
        {
          "internalType": "uint256",
          "name": "maximumEndTime",
          "type": "uint256"
        },
        {
          "internalType": "address",
          "name": "preferredToken",
          "type": "address"
        },
        {
          "internalType": "uint256",
          "name": "pricePerDay",
          "type": "uint256"
        },
        {
          "internalType": "uint256",
          "name": "collateralAmount",
          "type": "uint256"
        }
      ],
      "name": "listNFT",
      "outputs": [],
      "stateMutability": "nonpayable",
      "type": "function"
    },
    {
      "inputs": [
        {
          "internalType": "uint256",
          "name": "",
          "type": "uint256"
        }
      ],
      "name": "listings",
      "outputs": [
        {
          "internalType": "address",
          "name": "nftAddress",
          "type": "address"
        },
        {
          "internalType": "uint256",
          "name": "tokenId",
          "type": "uint256"
        },
        {
          "internalType": "address",
          "name": "lender",
          "type": "address"
        },
        {
          "internalType": "uint256",
          "name": "maximumEndTime",
          "type": "uint256"
        },
        {
          "internalType": "uint256",
          "name": "createTime",
          "type": "uint256"
        },
        {
          "internalType": "address",
          "name": "preferredToken",
          "type": "address"
        },
        {
          "components": [
            {
              "internalType": "address",
              "name": "renter",
              "type": "address"
            },
            {
              "internalType": "uint256",
              "name": "expiryTime",
              "type": "uint256"
            }
          ],
          "internalType": "struct Rental",
          "name": "rental",
          "type": "tuple"
        },
        {
          "internalType": "uint256",
          "name": "pricePerDay",
          "type": "uint256"
        },
        {
          "internalType": "uint256",
          "name": "collateralAmount",
          "type": "uint256"
        }
      ],
      "stateMutability": "view",
      "type": "function"
    },
    {
      "inputs": [
        {
          "internalType": "address",
          "name": "",
          "type": "address"
        },
        {
          "internalType": "address",
          "name": "",
          "type": "address"
        },
        {
          "internalType": "uint256[]",
          "name": "",
          "type": "uint256[]"
        },
        {
          "internalType": "uint256[]",
          "name": "",
          "type": "uint256[]"
        },
        {
          "internalType": "bytes",
          "name": "",
          "type": "bytes"
        }
      ],
      "name": "onERC1155BatchReceived",
      "outputs": [
        {
          "internalType": "bytes4",
          "name": "",
          "type": "bytes4"
        }
      ],
      "stateMutability": "nonpayable",
      "type": "function"
    },
    {
      "inputs": [
        {
          "internalType": "address",
          "name": "",
          "type": "address"
        },
        {
          "internalType": "address",
          "name": "",
          "type": "address"
        },
        {
          "internalType": "uint256",
          "name": "",
          "type": "uint256"
        },
        {
          "internalType": "uint256",
          "name": "",
          "type": "uint256"
        },
        {
          "internalType": "bytes",
          "name": "",
          "type": "bytes"
        }
      ],
      "name": "onERC1155Received",
      "outputs": [
        {
          "internalType": "bytes4",
          "name": "",
          "type": "bytes4"
        }
      ],
      "stateMutability": "nonpayable",
      "type": "function"
    },
    {
      "inputs": [
        {
          "internalType": "address",
          "name": "",
          "type": "address"
        },
        {
          "internalType": "address",
          "name": "",
          "type": "address"
        },
        {
          "internalType": "uint256",
          "name": "",
          "type": "uint256"
        },
        {
          "internalType": "bytes",
          "name": "",
          "type": "bytes"
        }
      ],
      "name": "onERC721Received",
      "outputs": [
        {
          "internalType": "bytes4",
          "name": "",
          "type": "bytes4"
        }
      ],
      "stateMutability": "nonpayable",
      "type": "function"
    },
    {
      "inputs": [],
      "name": "owner",
      "outputs": [
        {
          "internalType": "address",
          "name": "",
          "type": "address"
        }
      ],
      "stateMutability": "view",
      "type": "function"
    },
    {
      "inputs": [],
      "name": "renounceOwnership",
      "outputs": [],
      "stateMutability": "nonpayable",
      "type": "function"
    },
    {
      "inputs": [
        {
          "internalType": "address",
          "name": "nftAddress",
          "type": "address"
        },
        {
          "internalType": "uint256",
          "name": "tokenId",
          "type": "uint256"
        },
        {
          "internalType": "uint16",
          "name": "daysToRent",
          "type": "uint16"
        }
      ],
      "name": "rent",
      "outputs": [],
      "stateMutability": "nonpayable",
      "type": "function"
    },
    {
      "inputs": [
        {
          "internalType": "string",
          "name": "destinationChain",
          "type": "string"
        },
        {
          "internalType": "address",
          "name": "nftAddress",
          "type": "address"
        },
        {
          "internalType": "uint256",
          "name": "tokenId",
          "type": "uint256"
        },
        {
          "internalType": "uint16",
          "name": "daysToRent",
          "type": "uint16"
        },
        {
          "components": [
            {
              "internalType": "address",
              "name": "lenderMarket",
              "type": "address"
            },
            {
              "internalType": "address",
              "name": "renterLinker",
              "type": "address"
            },
            {
              "internalType": "address",
              "name": "lenderLinker",
              "type": "address"
            },
            {
              "internalType": "uint256",
              "name": "gasForRemote",
              "type": "uint256"
            }
          ],
          "internalType": "struct GatewayAck",
          "name": "gas",
          "type": "tuple"
        }
      ],
      "name": "requestRent",
      "outputs": [],
      "stateMutability": "payable",
      "type": "function"
    },
    {
      "inputs": [
        {
          "internalType": "address",
          "name": "nftAddress",
          "type": "address"
        },
        {
          "internalType": "uint256",
          "name": "tokenId",
          "type": "uint256"
        }
      ],
      "name": "returnRentedNFT",
      "outputs": [
        {
          "internalType": "uint256",
          "name": "txId",
          "type": "uint256"
        }
      ],
      "stateMutability": "payable",
      "type": "function"
    },
    {
      "inputs": [
        {
          "internalType": "bytes4",
          "name": "interfaceId",
          "type": "bytes4"
        }
      ],
      "name": "supportsInterface",
      "outputs": [
        {
          "internalType": "bool",
          "name": "",
          "type": "bool"
        }
      ],
      "stateMutability": "view",
      "type": "function"
    },
    {
      "inputs": [
        {
          "internalType": "address",
          "name": "newOwner",
          "type": "address"
        }
      ],
      "name": "transferOwnership",
      "outputs": [],
      "stateMutability": "nonpayable",
      "type": "function"
    }
  ],
  "bytecode": "0x60806040523480156200001157600080fd5b5062000032620000266200003f60201b60201c565b6200004760201b60201c565b600180819055506200010b565b600033905090565b60008060009054906101000a900473ffffffffffffffffffffffffffffffffffffffff169050816000806101000a81548173ffffffffffffffffffffffffffffffffffffffff021916908373ffffffffffffffffffffffffffffffffffffffff1602179055508173ffffffffffffffffffffffffffffffffffffffff168173ffffffffffffffffffffffffffffffffffffffff167f8be0079c531659141344cd1fd0a4f28419497f9722a3daafe3b4186f6b6457e060405160405180910390a35050565b614b00806200011b6000396000f3fe60806040526004361061012a5760003560e01c806380d14b4a116100ab578063bc197c811161006f578063bc197c81146103c4578063de74e57b14610401578063e800af0e14610446578063f23a6e611461046f578063f241d4c9146104ac578063f2fde38b146104d55761012a565b806380d14b4a146102d657806388700d1c146103015780638da5cb5b1461033e578063ae73ccec14610369578063b9be0447146103945761012a565b806341b02912116100f257806341b02912146102285780634916065814610251578063511f264a1461027a578063715018a61461029657806371f72fa0146102ad5761012a565b806301ffc9a71461012f578063116191b61461016c578063150b7a02146101975780631a98b2e0146101d45780631c93b03a146101fd575b600080fd5b34801561013b57600080fd5b5061015660048036038101906101519190612b07565b6104fe565b6040516101639190612b4f565b60405180910390f35b34801561017857600080fd5b50610181610578565b60405161018e9190612be9565b60405180910390f35b3480156101a357600080fd5b506101be60048036038101906101b99190612dbe565b6105a2565b6040516101cb9190612e50565b60405180910390f35b3480156101e057600080fd5b506101fb60048036038101906101f69190612f57565b6105b6565b005b34801561020957600080fd5b506102126106c8565b60405161021f91906130ef565b60405180910390f35b34801561023457600080fd5b5061024f600480360381019061024a9190613111565b610756565b005b34801561025d57600080fd5b5061027860048036038101906102739190613151565b61076c565b005b610294600480360381019061028f9190613372565b6108b8565b005b3480156102a257600080fd5b506102ab610db3565b005b3480156102b957600080fd5b506102d460048036038101906102cf919061340a565b610dc7565b005b3480156102e257600080fd5b506102eb610f2e565b6040516102f8919061349a565b60405180910390f35b34801561030d57600080fd5b5061032860048036038101906103239190613111565b610f54565b60405161033591906135ba565b60405180910390f35b34801561034a57600080fd5b50610353611168565b60405161036091906135e5565b60405180910390f35b34801561037557600080fd5b5061037e611191565b60405161038b9190613768565b60405180910390f35b6103ae60048036038101906103a99190613111565b611399565b6040516103bb9190613799565b60405180910390f35b3480156103d057600080fd5b506103eb60048036038101906103e69190613877565b6113a1565b6040516103f89190612e50565b60405180910390f35b34801561040d57600080fd5b5061042860048036038101906104239190613946565b6113b6565b60405161043d999897969594939291906139a2565b60405180910390f35b34801561045257600080fd5b5061046d60048036038101906104689190613a30565b6114de565b005b34801561047b57600080fd5b5061049660048036038101906104919190613a83565b611bc0565b6040516104a39190612e50565b60405180910390f35b3480156104b857600080fd5b506104d360048036038101906104ce9190613b1a565b611bd5565b005b3480156104e157600080fd5b506104fc60048036038101906104f79190613ba7565b612063565b005b60007f4e2312e0000000000000000000000000000000000000000000000000000000007bffffffffffffffffffffffffffffffffffffffffffffffffffffffff1916827bffffffffffffffffffffffffffffffffffffffffffffffffffffffff191614806105715750610570826120e7565b5b9050919050565b6000600460009054906101000a900473ffffffffffffffffffffffffffffffffffffffff16905090565b600063150b7a0260e01b9050949350505050565b600085856040516105c8929190613c04565b604051809103902090506105da610578565b73ffffffffffffffffffffffffffffffffffffffff16631876eed98c8c8c8c8c878b8b8b6040518a63ffffffff1660e01b815260040161062299989796959493929190613c59565b602060405180830381600087803b15801561063c57600080fd5b505af1158015610650573d6000803e3d6000fd5b505050506040513d601f19601f820116820180604052508101906106749190613d01565b6106aa576040517f500c44b400000000000000000000000000000000000000000000000000000000815260040160405180910390fd5b6106bb8a8a8a8a8a8a8a8a8a612151565b5050505050505050505050565b600680546106d590613d5d565b80601f016020809104026020016040519081016040528092919081815260200182805461070190613d5d565b801561074e5780601f106107235761010080835404028352916020019161074e565b820191906000526020600020905b81548152906001019060200180831161073157829003601f168201915b505050505081565b61076861076161215c565b8383612164565b5050565b602a84849050146107b2576040517f08c379a00000000000000000000000000000000000000000000000000000000081526004016107a990613ddb565b60405180910390fd5b600082826040516107c4929190613c04565b604051809103902090506107d6610578565b73ffffffffffffffffffffffffffffffffffffffff16635f6970c38989898989876040518763ffffffff1660e01b815260040161081896959493929190613dfb565b602060405180830381600087803b15801561083257600080fd5b505af1158015610846573d6000803e3d6000fd5b505050506040513d601f19601f8201168201806040525081019061086a9190613d01565b6108a0576040517f500c44b400000000000000000000000000000000000000000000000000000000815260040160405180910390fd5b6108ae8787878787876123b5565b5050505050505050565b600260015414156108fe576040517f08c379a00000000000000000000000000000000000000000000000000000000081526004016108f590613e9e565b60405180910390fd5b6002600181905550600061091061215c565b90506109a6866006805461092390613d5d565b80601f016020809104026020016040519081016040528092919081815260200182805461094f90613d5d565b801561099c5780601f106109715761010080835404028352916020019161099c565b820191906000526020600020905b81548152906001019060200180831161097f57829003601f168201915b5050505050612461565b15610a2a576109b68585856114de565b8473ffffffffffffffffffffffffffffffffffffffff166323b872dd8230876040518463ffffffff1660e01b81526004016109f393929190613ebe565b600060405180830381600087803b158015610a0d57600080fd5b505af1158015610a21573d6000803e3d6000fd5b50505050610da4565b60008585858460068760200151604051602001610a4c96959493929190613f99565b604051602081830303815290604052905060008686846006604051602001610a779493929190614001565b60405160208183030381529060405290506000610aa93073ffffffffffffffffffffffffffffffffffffffff166124cd565b9050600085606001511115610c945734856060015111610afe576040517f08c379a0000000000000000000000000000000000000000000000000000000008152600401610af590614099565b60405180910390fd5b600560009054906101000a900473ffffffffffffffffffffffffffffffffffffffff1673ffffffffffffffffffffffffffffffffffffffff16630c93e3bb8660600151308c610b668a6000015173ffffffffffffffffffffffffffffffffffffffff166124cd565b88336040518763ffffffff1660e01b8152600401610b8895949392919061410e565b6000604051808303818588803b158015610ba157600080fd5b505af1158015610bb5573d6000803e3d6000fd5b50505050508460600151341115610c9357600560009054906101000a900473ffffffffffffffffffffffffffffffffffffffff1673ffffffffffffffffffffffffffffffffffffffff16630c93e3bb866060015134610c1491906141a5565b87604001516006610c3e8a6020015173ffffffffffffffffffffffffffffffffffffffff166124cd565b87336040518763ffffffff1660e01b8152600401610c609594939291906141d9565b6000604051808303818588803b158015610c7957600080fd5b505af1158015610c8d573d6000803e3d6000fd5b50505050505b5b600560009054906101000a900473ffffffffffffffffffffffffffffffffffffffff1673ffffffffffffffffffffffffffffffffffffffff16630c93e3bb34308c85888a6040518763ffffffff1660e01b8152600401610cf895949392919061410e565b6000604051808303818588803b158015610d1157600080fd5b505af1158015610d25573d6000803e3d6000fd5b5050505050610d32610578565b73ffffffffffffffffffffffffffffffffffffffff16631c92115f8a83866040518463ffffffff1660e01b8152600401610d6e93929190614241565b600060405180830381600087803b158015610d8857600080fd5b505af1158015610d9c573d6000803e3d6000fd5b505050505050505b50600180819055505050505050565b610dbb6127ea565b610dc56000612868565b565b600073ffffffffffffffffffffffffffffffffffffffff16610de7610578565b73ffffffffffffffffffffffffffffffffffffffff16141580610e595750600073ffffffffffffffffffffffffffffffffffffffff16600560009054906101000a900473ffffffffffffffffffffffffffffffffffffffff1673ffffffffffffffffffffffffffffffffffffffff1614155b15610e90576040517f0dc149f000000000000000000000000000000000000000000000000000000000815260040160405180910390fd5b80600560006101000a81548173ffffffffffffffffffffffffffffffffffffffff021916908373ffffffffffffffffffffffffffffffffffffffff16021790555081600460006101000a81548173ffffffffffffffffffffffffffffffffffffffff021916908373ffffffffffffffffffffffffffffffffffffffff1602179055508260069080519060200190610f28929190612934565b50505050565b600560009054906101000a900473ffffffffffffffffffffffffffffffffffffffff1681565b610f5c6129ba565b600260008473ffffffffffffffffffffffffffffffffffffffff1673ffffffffffffffffffffffffffffffffffffffff1681526020019081526020016000206000838152602001908152602001600020604051806101200160405290816000820160009054906101000a900473ffffffffffffffffffffffffffffffffffffffff1673ffffffffffffffffffffffffffffffffffffffff1673ffffffffffffffffffffffffffffffffffffffff168152602001600182015481526020016002820160009054906101000a900473ffffffffffffffffffffffffffffffffffffffff1673ffffffffffffffffffffffffffffffffffffffff1673ffffffffffffffffffffffffffffffffffffffff16815260200160038201548152602001600482015481526020016005820160009054906101000a900473ffffffffffffffffffffffffffffffffffffffff1673ffffffffffffffffffffffffffffffffffffffff1673ffffffffffffffffffffffffffffffffffffffff168152602001600682016040518060400160405290816000820160009054906101000a900473ffffffffffffffffffffffffffffffffffffffff1673ffffffffffffffffffffffffffffffffffffffff1673ffffffffffffffffffffffffffffffffffffffff168152602001600182015481525050815260200160088201548152602001600982015481525050905092915050565b60008060009054906101000a900473ffffffffffffffffffffffffffffffffffffffff16905090565b60606003805480602002602001604051908101604052809291908181526020016000905b8282101561139057838290600052602060002090600a0201604051806101200160405290816000820160009054906101000a900473ffffffffffffffffffffffffffffffffffffffff1673ffffffffffffffffffffffffffffffffffffffff1673ffffffffffffffffffffffffffffffffffffffff168152602001600182015481526020016002820160009054906101000a900473ffffffffffffffffffffffffffffffffffffffff1673ffffffffffffffffffffffffffffffffffffffff1673ffffffffffffffffffffffffffffffffffffffff16815260200160038201548152602001600482015481526020016005820160009054906101000a900473ffffffffffffffffffffffffffffffffffffffff1673ffffffffffffffffffffffffffffffffffffffff1673ffffffffffffffffffffffffffffffffffffffff168152602001600682016040518060400160405290816000820160009054906101000a900473ffffffffffffffffffffffffffffffffffffffff1673ffffffffffffffffffffffffffffffffffffffff1673ffffffffffffffffffffffffffffffffffffffff168152602001600182015481525050815260200160088201548152602001600982015481525050815260200190600101906111b5565b50505050905090565b600092915050565b600063bc197c8160e01b905095945050505050565b600381815481106113c657600080fd5b90600052602060002090600a02016000915090508060000160009054906101000a900473ffffffffffffffffffffffffffffffffffffffff16908060010154908060020160009054906101000a900473ffffffffffffffffffffffffffffffffffffffff16908060030154908060040154908060050160009054906101000a900473ffffffffffffffffffffffffffffffffffffffff1690806006016040518060400160405290816000820160009054906101000a900473ffffffffffffffffffffffffffffffffffffffff1673ffffffffffffffffffffffffffffffffffffffff1673ffffffffffffffffffffffffffffffffffffffff168152602001600182015481525050908060080154908060090154905089565b60026001541415611524576040517f08c379a000000000000000000000000000000000000000000000000000000000815260040161151b90613e9e565b60405180910390fd5b60026001819055506000600260008573ffffffffffffffffffffffffffffffffffffffff1673ffffffffffffffffffffffffffffffffffffffff1681526020019081526020016000206000848152602001908152602001600020604051806101200160405290816000820160009054906101000a900473ffffffffffffffffffffffffffffffffffffffff1673ffffffffffffffffffffffffffffffffffffffff1673ffffffffffffffffffffffffffffffffffffffff168152602001600182015481526020016002820160009054906101000a900473ffffffffffffffffffffffffffffffffffffffff1673ffffffffffffffffffffffffffffffffffffffff1673ffffffffffffffffffffffffffffffffffffffff16815260200160038201548152602001600482015481526020016005820160009054906101000a900473ffffffffffffffffffffffffffffffffffffffff1673ffffffffffffffffffffffffffffffffffffffff1673ffffffffffffffffffffffffffffffffffffffff168152602001600682016040518060400160405290816000820160009054906101000a900473ffffffffffffffffffffffffffffffffffffffff1673ffffffffffffffffffffffffffffffffffffffff1673ffffffffffffffffffffffffffffffffffffffff1681526020016001820154815250508152602001600882015481526020016009820154815250509050600042620151808461ffff1661174a919061429c565b62ffffff1661175991906142d9565b90506000826080015114156117a3576040517f08c379a000000000000000000000000000000000000000000000000000000000815260040161179a9061437b565b60405180910390fd5b60008361ffff16116117ea576040517f08c379a00000000000000000000000000000000000000000000000000000000081526004016117e19061440d565b60405180910390fd5b8160600151811115611831576040517f08c379a000000000000000000000000000000000000000000000000000000000815260040161182890614479565b60405180910390fd5b600073ffffffffffffffffffffffffffffffffffffffff168260c001516000015173ffffffffffffffffffffffffffffffffffffffff1614801561187d575060008260c0015160200151145b6118bc576040517f08c379a00000000000000000000000000000000000000000000000000000000081526004016118b3906144e5565b60405180910390fd5b60008260a00151905060008360e001518561ffff166118db9190614505565b90506000846101000151826118f091906142d9565b9050808373ffffffffffffffffffffffffffffffffffffffff166370a08231306040518263ffffffff1660e01b815260040161192c91906135e5565b60206040518083038186803b15801561194457600080fd5b505afa158015611958573d6000803e3d6000fd5b505050506040513d601f19601f8201168201806040525081019061197c9190614574565b10156119bd576040517f08c379a00000000000000000000000000000000000000000000000000000000081526004016119b4906145ed565b60405180910390fd5b60405180604001604052806119d061215c565b73ffffffffffffffffffffffffffffffffffffffff168152602001858152508560c0018190525084600260008a73ffffffffffffffffffffffffffffffffffffffff1673ffffffffffffffffffffffffffffffffffffffff168152602001908152602001600020600089815260200190815260200160002060008201518160000160006101000a81548173ffffffffffffffffffffffffffffffffffffffff021916908373ffffffffffffffffffffffffffffffffffffffff1602179055506020820151816001015560408201518160020160006101000a81548173ffffffffffffffffffffffffffffffffffffffff021916908373ffffffffffffffffffffffffffffffffffffffff160217905550606082015181600301556080820151816004015560a08201518160050160006101000a81548173ffffffffffffffffffffffffffffffffffffffff021916908373ffffffffffffffffffffffffffffffffffffffff16021790555060c08201518160060160008201518160000160006101000a81548173ffffffffffffffffffffffffffffffffffffffff021916908373ffffffffffffffffffffffffffffffffffffffff16021790555060208201518160010155505060e082015181600801556101008201518160090155905050505050505060018081905550505050565b600063f23a6e6160e01b905095945050505050565b60026001541415611c1b576040517f08c379a0000000000000000000000000000000000000000000000000000000008152600401611c1290613e9e565b60405180910390fd5b6002600181905550611c35611c2e61215c565b8787612164565b6000611c3f61215c565b90506000600260008973ffffffffffffffffffffffffffffffffffffffff1673ffffffffffffffffffffffffffffffffffffffff16815260200190815260200160002060008881526020019081526020016000209050878160000160006101000a81548173ffffffffffffffffffffffffffffffffffffffff021916908373ffffffffffffffffffffffffffffffffffffffff160217905550868160010181905550818160020160006101000a81548173ffffffffffffffffffffffffffffffffffffffff021916908373ffffffffffffffffffffffffffffffffffffffff160217905550858160030181905550428160040181905550838160080181905550828160090181905550848160050160006101000a81548173ffffffffffffffffffffffffffffffffffffffff021916908373ffffffffffffffffffffffffffffffffffffffff16021790555060038190806001815401808255809150506001900390600052602060002090600a02016000909190919091506000820160009054906101000a900473ffffffffffffffffffffffffffffffffffffffff168160000160006101000a81548173ffffffffffffffffffffffffffffffffffffffff021916908373ffffffffffffffffffffffffffffffffffffffff160217905550600182015481600101556002820160009054906101000a900473ffffffffffffffffffffffffffffffffffffffff168160020160006101000a81548173ffffffffffffffffffffffffffffffffffffffff021916908373ffffffffffffffffffffffffffffffffffffffff16021790555060038201548160030155600482015481600401556005820160009054906101000a900473ffffffffffffffffffffffffffffffffffffffff168160050160006101000a81548173ffffffffffffffffffffffffffffffffffffffff021916908373ffffffffffffffffffffffffffffffffffffffff16021790555060068201816006016000820160009054906101000a900473ffffffffffffffffffffffffffffffffffffffff168160000160006101000a81548173ffffffffffffffffffffffffffffffffffffffff021916908373ffffffffffffffffffffffffffffffffffffffff160217905550600182015481600101555050600882015481600801556009820154816009015550508773ffffffffffffffffffffffffffffffffffffffff166342842e0e83308a6040518463ffffffff1660e01b8152600401611fd893929190613ebe565b600060405180830381600087803b158015611ff257600080fd5b505af1158015612006573d6000803e3d6000fd5b505050507ff19ff65faec5fd4ac573eae866c59028b43804cf8febccea51d49eef1ce8fdb561203361215c565b898989888860405161204a9695949392919061460d565b60405180910390a1505060018081905550505050505050565b61206b6127ea565b600073ffffffffffffffffffffffffffffffffffffffff168173ffffffffffffffffffffffffffffffffffffffff1614156120db576040517f08c379a00000000000000000000000000000000000000000000000000000000081526004016120d2906146e0565b60405180910390fd5b6120e481612868565b50565b60007f01ffc9a7000000000000000000000000000000000000000000000000000000007bffffffffffffffffffffffffffffffffffffffffffffffffffffffff1916827bffffffffffffffffffffffffffffffffffffffffffffffffffffffff1916149050919050565b505050505050505050565b600033905090565b60008273ffffffffffffffffffffffffffffffffffffffff16636352211e836040518263ffffffff1660e01b815260040161219f9190613799565b60206040518083038186803b1580156121b757600080fd5b505afa1580156121cb573d6000803e3d6000fd5b505050506040513d601f19601f820116820180604052508101906121ef9190614715565b90508073ffffffffffffffffffffffffffffffffffffffff168473ffffffffffffffffffffffffffffffffffffffff1614806122de57508373ffffffffffffffffffffffffffffffffffffffff168373ffffffffffffffffffffffffffffffffffffffff1663081812fc846040518263ffffffff1660e01b81526004016122769190613799565b60206040518083038186803b15801561228e57600080fd5b505afa1580156122a2573d6000803e3d6000fd5b505050506040513d601f19601f820116820180604052508101906122c69190614715565b73ffffffffffffffffffffffffffffffffffffffff16145b8061237057508273ffffffffffffffffffffffffffffffffffffffff1663e985e9c582866040518363ffffffff1660e01b815260040161231f929190614742565b60206040518083038186803b15801561233757600080fd5b505afa15801561234b573d6000803e3d6000fd5b505050506040513d601f19601f8201168201806040525081019061236f9190613d01565b5b6123af576040517f08c379a00000000000000000000000000000000000000000000000000000000081526004016123a6906147dd565b60405180910390fd5b50505050565b60008060008060008087878101906123cd919061483b565b9550955095509550955095506123e48686866114de565b8073ffffffffffffffffffffffffffffffffffffffff166393349876878785876040518563ffffffff1660e01b815260040161242394939291906148e4565b600060405180830381600087803b15801561243d57600080fd5b505af1158015612451573d6000803e3d6000fd5b5050505050505050505050505050565b6000815183511461247557600090506124c7565b81604051602001612486919061496c565b60405160208183030381529060405280519060200120836040516020016124ad919061496c565b604051602081830303815290604052805190602001201490505b92915050565b60606000826040516020016124e291906149cb565b604051602081830303815290604052905060006040518060400160405280601081526020017f3031323334353637383961626364656600000000000000000000000000000000815250905060006002835161253d9190614505565b600261254991906142d9565b67ffffffffffffffff81111561256257612561612c93565b5b6040519080825280601f01601f1916602001820160405280156125945781602001600182028036833780820191505090505b5090507f3000000000000000000000000000000000000000000000000000000000000000816000815181106125cc576125cb6149e6565b5b60200101907effffffffffffffffffffffffffffffffffffffffffffffffffffffffffffff1916908160001a9053507f7800000000000000000000000000000000000000000000000000000000000000816001815181106126305761262f6149e6565b5b60200101907effffffffffffffffffffffffffffffffffffffffffffffffffffffffffffff1916908160001a90535060005b83518110156127de57826004858381518110612681576126806149e6565b5b602001015160f81c60f81b7effffffffffffffffffffffffffffffffffffffffffffffffffffffffffffff1916901c60f81c60ff16815181106126c7576126c66149e6565b5b602001015160f81c60f81b826002836126e09190614505565b60026126ec91906142d9565b815181106126fd576126fc6149e6565b5b60200101907effffffffffffffffffffffffffffffffffffffffffffffffffffffffffffff1916908160001a90535082600f60f81b858381518110612745576127446149e6565b5b602001015160f81c60f81b1660f81c60ff1681518110612768576127676149e6565b5b602001015160f81c60f81b826002836127819190614505565b600361278d91906142d9565b8151811061279e5761279d6149e6565b5b60200101907effffffffffffffffffffffffffffffffffffffffffffffffffffffffffffff1916908160001a905350806127d790614a15565b9050612662565b50809350505050919050565b6127f261292c565b73ffffffffffffffffffffffffffffffffffffffff16612810611168565b73ffffffffffffffffffffffffffffffffffffffff1614612866576040517f08c379a000000000000000000000000000000000000000000000000000000000815260040161285d90614aaa565b60405180910390fd5b565b60008060009054906101000a900473ffffffffffffffffffffffffffffffffffffffff169050816000806101000a81548173ffffffffffffffffffffffffffffffffffffffff021916908373ffffffffffffffffffffffffffffffffffffffff1602179055508173ffffffffffffffffffffffffffffffffffffffff168173ffffffffffffffffffffffffffffffffffffffff167f8be0079c531659141344cd1fd0a4f28419497f9722a3daafe3b4186f6b6457e060405160405180910390a35050565b600033905090565b82805461294090613d5d565b90600052602060002090601f01602090048101928261296257600085556129a9565b82601f1061297b57805160ff19168380011785556129a9565b828001600101855582156129a9579182015b828111156129a857825182559160200191906001019061298d565b5b5090506129b69190612a4e565b5090565b604051806101200160405280600073ffffffffffffffffffffffffffffffffffffffff16815260200160008152602001600073ffffffffffffffffffffffffffffffffffffffff1681526020016000815260200160008152602001600073ffffffffffffffffffffffffffffffffffffffff168152602001612a3a612a6b565b815260200160008152602001600081525090565b5b80821115612a67576000816000905550600101612a4f565b5090565b6040518060400160405280600073ffffffffffffffffffffffffffffffffffffffff168152602001600081525090565b6000604051905090565b600080fd5b600080fd5b60007fffffffff0000000000000000000000000000000000000000000000000000000082169050919050565b612ae481612aaf565b8114612aef57600080fd5b50565b600081359050612b0181612adb565b92915050565b600060208284031215612b1d57612b1c612aa5565b5b6000612b2b84828501612af2565b91505092915050565b60008115159050919050565b612b4981612b34565b82525050565b6000602082019050612b646000830184612b40565b92915050565b600073ffffffffffffffffffffffffffffffffffffffff82169050919050565b6000819050919050565b6000612baf612baa612ba584612b6a565b612b8a565b612b6a565b9050919050565b6000612bc182612b94565b9050919050565b6000612bd382612bb6565b9050919050565b612be381612bc8565b82525050565b6000602082019050612bfe6000830184612bda565b92915050565b6000612c0f82612b6a565b9050919050565b612c1f81612c04565b8114612c2a57600080fd5b50565b600081359050612c3c81612c16565b92915050565b6000819050919050565b612c5581612c42565b8114612c6057600080fd5b50565b600081359050612c7281612c4c565b92915050565b600080fd5b600080fd5b6000601f19601f8301169050919050565b7f4e487b7100000000000000000000000000000000000000000000000000000000600052604160045260246000fd5b612ccb82612c82565b810181811067ffffffffffffffff82111715612cea57612ce9612c93565b5b80604052505050565b6000612cfd612a9b565b9050612d098282612cc2565b919050565b600067ffffffffffffffff821115612d2957612d28612c93565b5b612d3282612c82565b9050602081019050919050565b82818337600083830152505050565b6000612d61612d5c84612d0e565b612cf3565b905082815260208101848484011115612d7d57612d7c612c7d565b5b612d88848285612d3f565b509392505050565b600082601f830112612da557612da4612c78565b5b8135612db5848260208601612d4e565b91505092915050565b60008060008060808587031215612dd857612dd7612aa5565b5b6000612de687828801612c2d565b9450506020612df787828801612c2d565b9350506040612e0887828801612c63565b925050606085013567ffffffffffffffff811115612e2957612e28612aaa565b5b612e3587828801612d90565b91505092959194509250565b612e4a81612aaf565b82525050565b6000602082019050612e656000830184612e41565b92915050565b6000819050919050565b612e7e81612e6b565b8114612e8957600080fd5b50565b600081359050612e9b81612e75565b92915050565b600080fd5b600080fd5b60008083601f840112612ec157612ec0612c78565b5b8235905067ffffffffffffffff811115612ede57612edd612ea1565b5b602083019150836001820283011115612efa57612ef9612ea6565b5b9250929050565b60008083601f840112612f1757612f16612c78565b5b8235905067ffffffffffffffff811115612f3457612f33612ea1565b5b602083019150836001820283011115612f5057612f4f612ea6565b5b9250929050565b60008060008060008060008060008060c08b8d031215612f7a57612f79612aa5565b5b6000612f888d828e01612e8c565b9a505060208b013567ffffffffffffffff811115612fa957612fa8612aaa565b5b612fb58d828e01612eab565b995099505060408b013567ffffffffffffffff811115612fd857612fd7612aaa565b5b612fe48d828e01612eab565b975097505060608b013567ffffffffffffffff81111561300757613006612aaa565b5b6130138d828e01612f01565b955095505060808b013567ffffffffffffffff81111561303657613035612aaa565b5b6130428d828e01612eab565b935093505060a06130558d828e01612c63565b9150509295989b9194979a5092959850565b600081519050919050565b600082825260208201905092915050565b60005b838110156130a1578082015181840152602081019050613086565b838111156130b0576000848401525b50505050565b60006130c182613067565b6130cb8185613072565b93506130db818560208601613083565b6130e481612c82565b840191505092915050565b6000602082019050818103600083015261310981846130b6565b905092915050565b6000806040838503121561312857613127612aa5565b5b600061313685828601612c2d565b925050602061314785828601612c63565b9150509250929050565b60008060008060008060006080888a0312156131705761316f612aa5565b5b600061317e8a828b01612e8c565b975050602088013567ffffffffffffffff81111561319f5761319e612aaa565b5b6131ab8a828b01612eab565b9650965050604088013567ffffffffffffffff8111156131ce576131cd612aaa565b5b6131da8a828b01612eab565b9450945050606088013567ffffffffffffffff8111156131fd576131fc612aaa565b5b6132098a828b01612f01565b925092505092959891949750929550565b600067ffffffffffffffff82111561323557613234612c93565b5b61323e82612c82565b9050602081019050919050565b600061325e6132598461321a565b612cf3565b90508281526020810184848401111561327a57613279612c7d565b5b613285848285612d3f565b509392505050565b600082601f8301126132a2576132a1612c78565b5b81356132b284826020860161324b565b91505092915050565b600061ffff82169050919050565b6132d2816132bb565b81146132dd57600080fd5b50565b6000813590506132ef816132c9565b92915050565b600080fd5b6000608082840312156133105761330f6132f5565b5b61331a6080612cf3565b9050600061332a84828501612c2d565b600083015250602061333e84828501612c2d565b602083015250604061335284828501612c2d565b604083015250606061336684828501612c63565b60608301525092915050565b6000806000806000610100868803121561338f5761338e612aa5565b5b600086013567ffffffffffffffff8111156133ad576133ac612aaa565b5b6133b98882890161328d565b95505060206133ca88828901612c2d565b94505060406133db88828901612c63565b93505060606133ec888289016132e0565b92505060806133fd888289016132fa565b9150509295509295909350565b60008060006060848603121561342357613422612aa5565b5b600084013567ffffffffffffffff81111561344157613440612aaa565b5b61344d8682870161328d565b935050602061345e86828701612c2d565b925050604061346f86828701612c2d565b9150509250925092565b600061348482612bb6565b9050919050565b61349481613479565b82525050565b60006020820190506134af600083018461348b565b92915050565b6134be81612c04565b82525050565b6134cd81612c42565b82525050565b6040820160008201516134e960008501826134b5565b5060208201516134fc60208501826134c4565b50505050565b6101408201600082015161351960008501826134b5565b50602082015161352c60208501826134c4565b50604082015161353f60408501826134b5565b50606082015161355260608501826134c4565b50608082015161356560808501826134c4565b5060a082015161357860a08501826134b5565b5060c082015161358b60c08501826134d3565b5060e082015161359f6101008501826134c4565b506101008201516135b46101208501826134c4565b50505050565b6000610140820190506135d06000830184613502565b92915050565b6135df81612c04565b82525050565b60006020820190506135fa60008301846135d6565b92915050565b600081519050919050565b600082825260208201905092915050565b6000819050602082019050919050565b6101408201600082015161364360008501826134b5565b50602082015161365660208501826134c4565b50604082015161366960408501826134b5565b50606082015161367c60608501826134c4565b50608082015161368f60808501826134c4565b5060a08201516136a260a08501826134b5565b5060c08201516136b560c08501826134d3565b5060e08201516136c96101008501826134c4565b506101008201516136de6101208501826134c4565b50505050565b60006136f0838361362c565b6101408301905092915050565b6000602082019050919050565b600061371582613600565b61371f818561360b565b935061372a8361361c565b8060005b8381101561375b57815161374288826136e4565b975061374d836136fd565b92505060018101905061372e565b5085935050505092915050565b60006020820190508181036000830152613782818461370a565b905092915050565b61379381612c42565b82525050565b60006020820190506137ae600083018461378a565b92915050565b600067ffffffffffffffff8211156137cf576137ce612c93565b5b602082029050602081019050919050565b60006137f36137ee846137b4565b612cf3565b9050808382526020820190506020840283018581111561381657613815612ea6565b5b835b8181101561383f578061382b8882612c63565b845260208401935050602081019050613818565b5050509392505050565b600082601f83011261385e5761385d612c78565b5b813561386e8482602086016137e0565b91505092915050565b600080600080600060a0868803121561389357613892612aa5565b5b60006138a188828901612c2d565b95505060206138b288828901612c2d565b945050604086013567ffffffffffffffff8111156138d3576138d2612aaa565b5b6138df88828901613849565b935050606086013567ffffffffffffffff811115613900576138ff612aaa565b5b61390c88828901613849565b925050608086013567ffffffffffffffff81111561392d5761392c612aaa565b5b61393988828901612d90565b9150509295509295909350565b60006020828403121561395c5761395b612aa5565b5b600061396a84828501612c63565b91505092915050565b60408201600082015161398960008501826134b5565b50602082015161399c60208501826134c4565b50505050565b6000610140820190506139b8600083018c6135d6565b6139c5602083018b61378a565b6139d2604083018a6135d6565b6139df606083018961378a565b6139ec608083018861378a565b6139f960a08301876135d6565b613a0660c0830186613973565b613a1461010083018561378a565b613a2261012083018461378a565b9a9950505050505050505050565b600080600060608486031215613a4957613a48612aa5565b5b6000613a5786828701612c2d565b9350506020613a6886828701612c63565b9250506040613a79868287016132e0565b9150509250925092565b600080600080600060a08688031215613a9f57613a9e612aa5565b5b6000613aad88828901612c2d565b9550506020613abe88828901612c2d565b9450506040613acf88828901612c63565b9350506060613ae088828901612c63565b925050608086013567ffffffffffffffff811115613b0157613b00612aaa565b5b613b0d88828901612d90565b9150509295509295909350565b60008060008060008060c08789031215613b3757613b36612aa5565b5b6000613b4589828a01612c2d565b9650506020613b5689828a01612c63565b9550506040613b6789828a01612c63565b9450506060613b7889828a01612c2d565b9350506080613b8989828a01612c63565b92505060a0613b9a89828a01612c63565b9150509295509295509295565b600060208284031215613bbd57613bbc612aa5565b5b6000613bcb84828501612c2d565b91505092915050565b600081905092915050565b6000613beb8385613bd4565b9350613bf8838584612d3f565b82840190509392505050565b6000613c11828486613bdf565b91508190509392505050565b613c2681612e6b565b82525050565b6000613c388385613072565b9350613c45838584612d3f565b613c4e83612c82565b840190509392505050565b600060c082019050613c6e600083018c613c1d565b8181036020830152613c81818a8c613c2c565b90508181036040830152613c9681888a613c2c565b9050613ca56060830187613c1d565b8181036080830152613cb8818587613c2c565b9050613cc760a083018461378a565b9a9950505050505050505050565b613cde81612b34565b8114613ce957600080fd5b50565b600081519050613cfb81613cd5565b92915050565b600060208284031215613d1757613d16612aa5565b5b6000613d2584828501613cec565b91505092915050565b7f4e487b7100000000000000000000000000000000000000000000000000000000600052602260045260246000fd5b60006002820490506001821680613d7557607f821691505b60208210811415613d8957613d88613d2e565b5b50919050565b7f7374617274000000000000000000000000000000000000000000000000000000600082015250565b6000613dc5600583613072565b9150613dd082613d8f565b602082019050919050565b60006020820190508181036000830152613df481613db8565b9050919050565b6000608082019050613e106000830189613c1d565b8181036020830152613e23818789613c2c565b90508181036040830152613e38818587613c2c565b9050613e476060830184613c1d565b979650505050505050565b7f5265656e7472616e637947756172643a207265656e7472616e742063616c6c00600082015250565b6000613e88601f83613072565b9150613e9382613e52565b602082019050919050565b60006020820190508181036000830152613eb781613e7b565b9050919050565b6000606082019050613ed360008301866135d6565b613ee060208301856135d6565b613eed604083018461378a565b949350505050565b613efe816132bb565b82525050565b60008190508160005260206000209050919050565b60008154613f2681613d5d565b613f308186613072565b94506001821660008114613f4b5760018114613f5d57613f90565b60ff1983168652602086019350613f90565b613f6685613f04565b60005b83811015613f8857815481890152600182019150602081019050613f69565b808801955050505b50505092915050565b600060c082019050613fae60008301896135d6565b613fbb602083018861378a565b613fc86040830187613ef5565b613fd560608301866135d6565b8181036080830152613fe78185613f19565b9050613ff660a08301846135d6565b979650505050505050565b600060808201905061401660008301876135d6565b614023602083018661378a565b61403060408301856135d6565b81810360608301526140428184613f19565b905095945050505050565b7f4e6f7420656e6f7567682076616c756520666f72206761730000000000000000600082015250565b6000614083601883613072565b915061408e8261404d565b602082019050919050565b600060208201905081810360008301526140b281614076565b9050919050565b600081519050919050565b600082825260208201905092915050565b60006140e0826140b9565b6140ea81856140c4565b93506140fa818560208601613083565b61410381612c82565b840191505092915050565b600060a08201905061412360008301886135d6565b818103602083015261413581876130b6565b9050818103604083015261414981866130b6565b9050818103606083015261415d81856140d5565b905061416c60808301846135d6565b9695505050505050565b7f4e487b7100000000000000000000000000000000000000000000000000000000600052601160045260246000fd5b60006141b082612c42565b91506141bb83612c42565b9250828210156141ce576141cd614176565b5b828203905092915050565b600060a0820190506141ee60008301886135d6565b81810360208301526142008187613f19565b9050818103604083015261421481866130b6565b9050818103606083015261422881856140d5565b905061423760808301846135d6565b9695505050505050565b6000606082019050818103600083015261425b81866130b6565b9050818103602083015261426f81856130b6565b9050818103604083015261428381846140d5565b9050949350505050565b600062ffffff82169050919050565b60006142a78261428d565b91506142b28361428d565b92508162ffffff04831182151516156142ce576142cd614176565b5b828202905092915050565b60006142e482612c42565b91506142ef83612c42565b9250827fffffffffffffffffffffffffffffffffffffffffffffffffffffffffffffffff0382111561432457614323614176565b5b828201905092915050565b7f54686973206c697374696e6720646f6573206e6f742065786973740000000000600082015250565b6000614365601b83613072565b91506143708261432f565b602082019050919050565b6000602082019050818103600083015261439481614358565b9050919050565b7f5468652072656e74616c20706572696f64206d7573742062652067726561746560008201527f72207468616e2030206461797300000000000000000000000000000000000000602082015250565b60006143f7602d83613072565b91506144028261439b565b604082019050919050565b60006020820190508181036000830152614426816143ea565b9050919050565b7f52656e74616c2074696d656672616d6520746f6f206c6f6e672e000000000000600082015250565b6000614463601a83613072565b915061446e8261442d565b602082019050919050565b6000602082019050818103600083015261449281614456565b9050919050565b7f54686973206974656d20697320616c72656164792072656e7465642e00000000600082015250565b60006144cf601c83613072565b91506144da82614499565b602082019050919050565b600060208201905081810360008301526144fe816144c2565b9050919050565b600061451082612c42565b915061451b83612c42565b9250817fffffffffffffffffffffffffffffffffffffffffffffffffffffffffffffffff048311821515161561455457614553614176565b5b828202905092915050565b60008151905061456e81612c4c565b92915050565b60006020828403121561458a57614589612aa5565b5b60006145988482850161455f565b91505092915050565b7f5061796d656e74206e6f74207265636569766564000000000000000000000000600082015250565b60006145d7601483613072565b91506145e2826145a1565b602082019050919050565b60006020820190508181036000830152614606816145ca565b9050919050565b600060c08201905061462260008301896135d6565b61462f60208301886135d6565b61463c604083018761378a565b614649606083018661378a565b614656608083018561378a565b61466360a083018461378a565b979650505050505050565b7f4f776e61626c653a206e6577206f776e657220697320746865207a65726f206160008201527f6464726573730000000000000000000000000000000000000000000000000000602082015250565b60006146ca602683613072565b91506146d58261466e565b604082019050919050565b600060208201905081810360008301526146f9816146bd565b9050919050565b60008151905061470f81612c16565b92915050565b60006020828403121561472b5761472a612aa5565b5b600061473984828501614700565b91505092915050565b600060408201905061475760008301856135d6565b61476460208301846135d6565b9392505050565b7f596f75206d75737420626520746865206f776e6572206f7220617070726f766560008201527f6420746f20646f2074686973202e2e2e00000000000000000000000000000000602082015250565b60006147c7603083613072565b91506147d28261476b565b604082019050919050565b600060208201905081810360008301526147f6816147ba565b9050919050565b600061480882612b6a565b9050919050565b614818816147fd565b811461482357600080fd5b50565b6000813590506148358161480f565b92915050565b60008060008060008060c0878903121561485857614857612aa5565b5b600061486689828a01614826565b965050602061487789828a01612c63565b955050604061488889828a016132e0565b945050606061489989828a01614826565b935050608087013567ffffffffffffffff8111156148ba576148b9612aaa565b5b6148c689828a0161328d565b92505060a06148d789828a01614826565b9150509295509295509295565b60006080820190506148f960008301876135d6565b614906602083018661378a565b818103604083015261491881856130b6565b905061492760608301846135d6565b95945050505050565b600081905092915050565b600061494682613067565b6149508185614930565b9350614960818560208601613083565b80840191505092915050565b6000614978828461493b565b915081905092915050565b60008160601b9050919050565b600061499b82614983565b9050919050565b60006149ad82614990565b9050919050565b6149c56149c082612c04565b6149a2565b82525050565b60006149d782846149b4565b60148201915081905092915050565b7f4e487b7100000000000000000000000000000000000000000000000000000000600052603260045260246000fd5b6000614a2082612c42565b91507fffffffffffffffffffffffffffffffffffffffffffffffffffffffffffffffff821415614a5357614a52614176565b5b600182019050919050565b7f4f776e61626c653a2063616c6c6572206973206e6f7420746865206f776e6572600082015250565b6000614a94602083613072565b9150614a9f82614a5e565b602082019050919050565b60006020820190508181036000830152614ac381614a87565b905091905056fea2646970667358221220b0519dfcb7f15d0c55add44d6b8de8c7432a05cdd114222c719b8b161147484964736f6c63430008090033",
  "linkReferences": {},
  "deployedLinkReferences": {}
}